{
  "address": "0xa35c55e7E2dB5874699cC9fb8d0E25032f51b443",
  "abi": [
    {
      "inputs": [
        {
          "internalType": "address",
          "name": "token_",
          "type": "address"
        },
        {
          "internalType": "address",
          "name": "vaultManager_",
          "type": "address"
        },
        {
          "internalType": "address",
          "name": "initialOwner_",
          "type": "address"
        }
      ],
      "stateMutability": "nonpayable",
      "type": "constructor"
    },
    {
      "inputs": [
        {
          "internalType": "address",
          "name": "account",
          "type": "address"
        }
      ],
      "name": "AddressIsNotContract",
      "type": "error"
    },
    {
      "inputs": [
        {
          "internalType": "uint256",
          "name": "depositId",
          "type": "uint256"
        },
        {
          "internalType": "uint256",
          "name": "graceEndsAt",
          "type": "uint256"
        },
        {
          "internalType": "uint256",
          "name": "currentTimestamp",
          "type": "uint256"
        }
      ],
      "name": "AutoRenewalTooEarly",
      "type": "error"
    },
    {
      "inputs": [
        {
          "internalType": "uint256",
          "name": "amount",
          "type": "uint256"
        },
        {
          "internalType": "uint256",
          "name": "maximum",
          "type": "uint256"
        }
      ],
      "name": "DepositAboveMaximum",
      "type": "error"
    },
    {
      "inputs": [
        {
          "internalType": "uint256",
          "name": "depositId",
          "type": "uint256"
        },
        {
          "internalType": "uint256",
          "name": "maturityAt",
          "type": "uint256"
        },
        {
          "internalType": "uint256",
          "name": "currentTimestamp",
          "type": "uint256"
        }
      ],
      "name": "DepositAlreadyMatured",
      "type": "error"
    },
    {
      "inputs": [
        {
          "internalType": "uint256",
          "name": "amount",
          "type": "uint256"
        },
        {
          "internalType": "uint256",
          "name": "minimum",
          "type": "uint256"
        }
      ],
      "name": "DepositBelowMinimum",
      "type": "error"
    },
    {
      "inputs": [
        {
          "internalType": "uint256",
          "name": "depositId",
          "type": "uint256"
        },
        {
          "internalType": "enum SavingCore.DepositStatus",
          "name": "currentStatus",
          "type": "uint8"
        }
      ],
      "name": "DepositNotActive",
      "type": "error"
    },
    {
      "inputs": [
        {
          "internalType": "uint256",
          "name": "depositId",
          "type": "uint256"
        },
        {
          "internalType": "uint256",
          "name": "maturityAt",
          "type": "uint256"
        },
        {
          "internalType": "uint256",
          "name": "currentTimestamp",
          "type": "uint256"
        }
      ],
      "name": "DepositNotMatured",
      "type": "error"
    },
    {
      "inputs": [
        {
          "internalType": "address",
          "name": "sender",
          "type": "address"
        },
        {
          "internalType": "uint256",
          "name": "tokenId",
          "type": "uint256"
        },
        {
          "internalType": "address",
          "name": "owner",
          "type": "address"
        }
      ],
      "name": "ERC721IncorrectOwner",
      "type": "error"
    },
    {
      "inputs": [
        {
          "internalType": "address",
          "name": "operator",
          "type": "address"
        },
        {
          "internalType": "uint256",
          "name": "tokenId",
          "type": "uint256"
        }
      ],
      "name": "ERC721InsufficientApproval",
      "type": "error"
    },
    {
      "inputs": [
        {
          "internalType": "address",
          "name": "approver",
          "type": "address"
        }
      ],
      "name": "ERC721InvalidApprover",
      "type": "error"
    },
    {
      "inputs": [
        {
          "internalType": "address",
          "name": "operator",
          "type": "address"
        }
      ],
      "name": "ERC721InvalidOperator",
      "type": "error"
    },
    {
      "inputs": [
        {
          "internalType": "address",
          "name": "owner",
          "type": "address"
        }
      ],
      "name": "ERC721InvalidOwner",
      "type": "error"
    },
    {
      "inputs": [
        {
          "internalType": "address",
          "name": "receiver",
          "type": "address"
        }
      ],
      "name": "ERC721InvalidReceiver",
      "type": "error"
    },
    {
      "inputs": [
        {
          "internalType": "address",
          "name": "sender",
          "type": "address"
        }
      ],
      "name": "ERC721InvalidSender",
      "type": "error"
    },
    {
      "inputs": [
        {
          "internalType": "uint256",
          "name": "tokenId",
          "type": "uint256"
        }
      ],
      "name": "ERC721NonexistentToken",
      "type": "error"
    },
    {
      "inputs": [],
      "name": "EnforcedPause",
      "type": "error"
    },
    {
      "inputs": [],
      "name": "ExpectedPause",
      "type": "error"
    },
    {
      "inputs": [
        {
          "internalType": "uint256",
          "name": "reserved",
          "type": "uint256"
        },
        {
          "internalType": "uint256",
          "name": "required",
          "type": "uint256"
        }
      ],
      "name": "InsufficientReservedInterest",
      "type": "error"
    },
    {
      "inputs": [],
      "name": "InvalidAddress",
      "type": "error"
    },
    {
      "inputs": [],
      "name": "InvalidAmount",
      "type": "error"
    },
    {
      "inputs": [
        {
          "internalType": "uint256",
          "name": "aprBps",
          "type": "uint256"
        }
      ],
      "name": "InvalidAprBps",
      "type": "error"
    },
    {
      "inputs": [
        {
          "internalType": "uint256",
          "name": "depositId",
          "type": "uint256"
        }
      ],
      "name": "InvalidDepositId",
      "type": "error"
    },
    {
      "inputs": [
        {
          "internalType": "uint256",
          "name": "minDeposit",
          "type": "uint256"
        },
        {
          "internalType": "uint256",
          "name": "maxDeposit",
          "type": "uint256"
        }
      ],
      "name": "InvalidDepositRange",
      "type": "error"
    },
    {
      "inputs": [
        {
          "internalType": "uint256",
          "name": "penaltyBps",
          "type": "uint256"
        }
      ],
      "name": "InvalidPenaltyBps",
      "type": "error"
    },
    {
      "inputs": [
        {
          "internalType": "uint256",
          "name": "planId",
          "type": "uint256"
        }
      ],
      "name": "InvalidPlanId",
      "type": "error"
    },
    {
      "inputs": [
        {
          "internalType": "uint256",
          "name": "tenorDays",
          "type": "uint256"
        }
      ],
      "name": "InvalidTenorDays",
      "type": "error"
    },
    {
      "inputs": [
        {
          "internalType": "uint256",
          "name": "depositId",
          "type": "uint256"
        },
        {
          "internalType": "uint256",
          "name": "graceEndsAt",
          "type": "uint256"
        },
        {
          "internalType": "uint256",
          "name": "currentTimestamp",
          "type": "uint256"
        }
      ],
      "name": "ManualRenewalWindowClosed",
      "type": "error"
    },
    {
      "inputs": [
        {
          "internalType": "uint256",
          "name": "depositId",
          "type": "uint256"
        }
      ],
      "name": "NoPendingInterest",
      "type": "error"
    },
    {
      "inputs": [
        {
          "internalType": "uint256",
          "name": "depositId",
          "type": "uint256"
        },
        {
          "internalType": "address",
          "name": "caller",
          "type": "address"
        },
        {
          "internalType": "address",
          "name": "currentOwner",
          "type": "address"
        }
      ],
      "name": "NotDepositOwner",
      "type": "error"
    },
    {
      "inputs": [
        {
          "internalType": "uint256",
          "name": "depositId",
          "type": "uint256"
        },
        {
          "internalType": "address",
          "name": "caller",
          "type": "address"
        },
        {
          "internalType": "address",
          "name": "claimant",
          "type": "address"
        }
      ],
      "name": "NotInterestClaimant",
      "type": "error"
    },
    {
      "inputs": [
        {
          "internalType": "address",
          "name": "owner",
          "type": "address"
        }
      ],
      "name": "OwnableInvalidOwner",
      "type": "error"
    },
    {
      "inputs": [
        {
          "internalType": "address",
          "name": "account",
          "type": "address"
        }
      ],
      "name": "OwnableUnauthorizedAccount",
      "type": "error"
    },
    {
      "inputs": [
        {
          "internalType": "uint256",
          "name": "planId",
          "type": "uint256"
        }
      ],
      "name": "PlanAlreadyDisabled",
      "type": "error"
    },
    {
      "inputs": [
        {
          "internalType": "uint256",
          "name": "planId",
          "type": "uint256"
        }
      ],
      "name": "PlanAlreadyEnabled",
      "type": "error"
    },
    {
      "inputs": [
        {
          "internalType": "uint256",
          "name": "planId",
          "type": "uint256"
        }
      ],
      "name": "PlanNotEnabled",
      "type": "error"
    },
    {
      "inputs": [],
      "name": "ReentrancyGuardReentrantCall",
      "type": "error"
    },
    {
      "inputs": [
        {
          "internalType": "address",
          "name": "token",
          "type": "address"
        }
      ],
      "name": "SafeERC20FailedOperation",
      "type": "error"
    },
    {
      "anonymous": false,
      "inputs": [
        {
          "indexed": true,
          "internalType": "address",
          "name": "owner",
          "type": "address"
        },
        {
          "indexed": true,
          "internalType": "address",
          "name": "approved",
          "type": "address"
        },
        {
          "indexed": true,
          "internalType": "uint256",
          "name": "tokenId",
          "type": "uint256"
        }
      ],
      "name": "Approval",
      "type": "event"
    },
    {
      "anonymous": false,
      "inputs": [
        {
          "indexed": true,
          "internalType": "address",
          "name": "owner",
          "type": "address"
        },
        {
          "indexed": true,
          "internalType": "address",
          "name": "operator",
          "type": "address"
        },
        {
          "indexed": false,
          "internalType": "bool",
          "name": "approved",
          "type": "bool"
        }
      ],
      "name": "ApprovalForAll",
      "type": "event"
    },
    {
      "anonymous": false,
      "inputs": [
        {
          "indexed": true,
          "internalType": "uint256",
          "name": "depositId",
          "type": "uint256"
        },
        {
          "indexed": true,
          "internalType": "address",
          "name": "owner",
          "type": "address"
        },
        {
          "indexed": true,
          "internalType": "uint256",
          "name": "planId",
          "type": "uint256"
        },
        {
          "indexed": false,
          "internalType": "uint256",
          "name": "principal",
          "type": "uint256"
        },
        {
          "indexed": false,
          "internalType": "uint256",
          "name": "maturityAt",
          "type": "uint256"
        },
        {
          "indexed": false,
          "internalType": "uint256",
          "name": "aprBpsAtOpen",
          "type": "uint256"
        }
      ],
      "name": "DepositOpened",
      "type": "event"
    },
    {
      "anonymous": false,
      "inputs": [
        {
          "indexed": true,
          "internalType": "uint256",
          "name": "depositId",
          "type": "uint256"
        },
        {
          "indexed": true,
          "internalType": "address",
          "name": "claimant",
          "type": "address"
        },
        {
          "indexed": false,
          "internalType": "uint256",
          "name": "amount",
          "type": "uint256"
        }
      ],
      "name": "InterestDeferred",
      "type": "event"
    },
    {
      "anonymous": false,
      "inputs": [
        {
          "indexed": true,
          "internalType": "uint256",
          "name": "depositId",
          "type": "uint256"
        },
        {
          "indexed": false,
          "internalType": "uint256",
          "name": "amount",
          "type": "uint256"
        },
        {
          "indexed": false,
          "internalType": "uint256",
          "name": "totalReservedInterest",
          "type": "uint256"
        }
      ],
      "name": "InterestReserved",
      "type": "event"
    },
    {
      "anonymous": false,
      "inputs": [
        {
          "indexed": true,
          "internalType": "address",
          "name": "previousOwner",
          "type": "address"
        },
        {
          "indexed": true,
          "internalType": "address",
          "name": "newOwner",
          "type": "address"
        }
      ],
      "name": "OwnershipTransferStarted",
      "type": "event"
    },
    {
      "anonymous": false,
      "inputs": [
        {
          "indexed": true,
          "internalType": "address",
          "name": "previousOwner",
          "type": "address"
        },
        {
          "indexed": true,
          "internalType": "address",
          "name": "newOwner",
          "type": "address"
        }
      ],
      "name": "OwnershipTransferred",
      "type": "event"
    },
    {
      "anonymous": false,
      "inputs": [
        {
          "indexed": false,
          "internalType": "address",
          "name": "account",
          "type": "address"
        }
      ],
      "name": "Paused",
      "type": "event"
    },
    {
      "anonymous": false,
      "inputs": [
        {
          "indexed": true,
          "internalType": "uint256",
          "name": "depositId",
          "type": "uint256"
        },
        {
          "indexed": true,
          "internalType": "address",
          "name": "claimant",
          "type": "address"
        },
        {
          "indexed": false,
          "internalType": "uint256",
          "name": "amount",
          "type": "uint256"
        }
      ],
      "name": "PendingInterestClaimed",
      "type": "event"
    },
    {
      "anonymous": false,
      "inputs": [
        {
          "indexed": true,
          "internalType": "uint256",
          "name": "planId",
          "type": "uint256"
        },
        {
          "indexed": false,
          "internalType": "uint256",
          "name": "tenorDays",
          "type": "uint256"
        },
        {
          "indexed": false,
          "internalType": "uint256",
          "name": "aprBps",
          "type": "uint256"
        }
      ],
      "name": "PlanCreated",
      "type": "event"
    },
    {
      "anonymous": false,
      "inputs": [
        {
          "indexed": true,
          "internalType": "uint256",
          "name": "planId",
          "type": "uint256"
        }
      ],
      "name": "PlanDisabled",
      "type": "event"
    },
    {
      "anonymous": false,
      "inputs": [
        {
          "indexed": true,
          "internalType": "uint256",
          "name": "planId",
          "type": "uint256"
        }
      ],
      "name": "PlanEnabled",
      "type": "event"
    },
    {
      "anonymous": false,
      "inputs": [
        {
          "indexed": true,
          "internalType": "uint256",
          "name": "planId",
          "type": "uint256"
        },
        {
          "indexed": false,
          "internalType": "uint256",
          "name": "newAprBps",
          "type": "uint256"
        }
      ],
      "name": "PlanUpdated",
      "type": "event"
    },
    {
      "anonymous": false,
      "inputs": [
        {
          "indexed": true,
          "internalType": "uint256",
          "name": "oldDepositId",
          "type": "uint256"
        },
        {
          "indexed": true,
          "internalType": "uint256",
          "name": "newDepositId",
          "type": "uint256"
        },
        {
          "indexed": false,
          "internalType": "uint256",
          "name": "newPrincipal",
          "type": "uint256"
        },
        {
          "indexed": true,
          "internalType": "uint256",
          "name": "newPlanId",
          "type": "uint256"
        }
      ],
      "name": "Renewed",
      "type": "event"
    },
    {
      "anonymous": false,
      "inputs": [
        {
          "indexed": true,
          "internalType": "uint256",
          "name": "depositId",
          "type": "uint256"
        },
        {
          "indexed": false,
          "internalType": "uint256",
          "name": "amount",
          "type": "uint256"
        },
        {
          "indexed": false,
          "internalType": "uint256",
          "name": "totalReservedInterest",
          "type": "uint256"
        }
      ],
      "name": "ReservedInterestConsumed",
      "type": "event"
    },
    {
      "anonymous": false,
      "inputs": [
        {
          "indexed": true,
          "internalType": "uint256",
          "name": "depositId",
          "type": "uint256"
        },
        {
          "indexed": false,
          "internalType": "uint256",
          "name": "amount",
          "type": "uint256"
        },
        {
          "indexed": false,
          "internalType": "uint256",
          "name": "totalReservedInterest",
          "type": "uint256"
        }
      ],
      "name": "ReservedInterestReleased",
      "type": "event"
    },
    {
      "anonymous": false,
      "inputs": [
        {
          "indexed": true,
          "internalType": "address",
          "name": "from",
          "type": "address"
        },
        {
          "indexed": true,
          "internalType": "address",
          "name": "to",
          "type": "address"
        },
        {
          "indexed": true,
          "internalType": "uint256",
          "name": "tokenId",
          "type": "uint256"
        }
      ],
      "name": "Transfer",
      "type": "event"
    },
    {
      "anonymous": false,
      "inputs": [
        {
          "indexed": false,
          "internalType": "address",
          "name": "account",
          "type": "address"
        }
      ],
      "name": "Unpaused",
      "type": "event"
    },
    {
      "anonymous": false,
      "inputs": [
        {
          "indexed": true,
          "internalType": "uint256",
          "name": "depositId",
          "type": "uint256"
        },
        {
          "indexed": true,
          "internalType": "address",
          "name": "owner",
          "type": "address"
        },
        {
          "indexed": false,
          "internalType": "uint256",
          "name": "principal",
          "type": "uint256"
        },
        {
          "indexed": false,
          "internalType": "uint256",
          "name": "interest",
          "type": "uint256"
        },
        {
          "indexed": false,
          "internalType": "bool",
          "name": "isEarly",
          "type": "bool"
        }
      ],
      "name": "Withdrawn",
      "type": "event"
    },
    {
      "inputs": [],
      "name": "BPS_DENOMINATOR",
      "outputs": [
        {
          "internalType": "uint256",
          "name": "",
          "type": "uint256"
        }
      ],
      "stateMutability": "view",
      "type": "function"
    },
    {
      "inputs": [],
      "name": "DEFAULT_APR_BPS",
      "outputs": [
        {
          "internalType": "uint256",
          "name": "",
          "type": "uint256"
        }
      ],
      "stateMutability": "view",
      "type": "function"
    },
    {
      "inputs": [],
      "name": "DEFAULT_EARLY_WITHDRAW_PENALTY_BPS",
      "outputs": [
        {
          "internalType": "uint256",
          "name": "",
          "type": "uint256"
        }
      ],
      "stateMutability": "view",
      "type": "function"
    },
    {
      "inputs": [],
      "name": "DEFAULT_TENOR_DAYS",
      "outputs": [
        {
          "internalType": "uint256",
          "name": "",
          "type": "uint256"
        }
      ],
      "stateMutability": "view",
      "type": "function"
    },
    {
      "inputs": [],
      "name": "GRACE_PERIOD",
      "outputs": [
        {
          "internalType": "uint256",
          "name": "",
          "type": "uint256"
        }
      ],
      "stateMutability": "view",
      "type": "function"
    },
    {
      "inputs": [],
      "name": "MAX_APR_BPS",
      "outputs": [
        {
          "internalType": "uint256",
          "name": "",
          "type": "uint256"
        }
      ],
      "stateMutability": "view",
      "type": "function"
    },
    {
      "inputs": [],
      "name": "MAX_PENALTY_BPS",
      "outputs": [
        {
          "internalType": "uint256",
          "name": "",
          "type": "uint256"
        }
      ],
      "stateMutability": "view",
      "type": "function"
    },
    {
      "inputs": [],
      "name": "MAX_TENOR_DAYS",
      "outputs": [
        {
          "internalType": "uint256",
          "name": "",
          "type": "uint256"
        }
      ],
      "stateMutability": "view",
      "type": "function"
    },
    {
      "inputs": [],
      "name": "MIN_APR_BPS",
      "outputs": [
        {
          "internalType": "uint256",
          "name": "",
          "type": "uint256"
        }
      ],
      "stateMutability": "view",
      "type": "function"
    },
    {
      "inputs": [],
      "name": "MIN_TENOR_DAYS",
      "outputs": [
        {
          "internalType": "uint256",
          "name": "",
          "type": "uint256"
        }
      ],
      "stateMutability": "view",
      "type": "function"
    },
    {
      "inputs": [],
      "name": "acceptOwnership",
      "outputs": [],
      "stateMutability": "nonpayable",
      "type": "function"
    },
    {
      "inputs": [
        {
          "internalType": "address",
          "name": "to",
          "type": "address"
        },
        {
          "internalType": "uint256",
          "name": "tokenId",
          "type": "uint256"
        }
      ],
      "name": "approve",
      "outputs": [],
      "stateMutability": "nonpayable",
      "type": "function"
    },
    {
      "inputs": [
        {
          "internalType": "uint256",
          "name": "depositId",
          "type": "uint256"
        }
      ],
      "name": "autoRenew",
      "outputs": [
        {
          "internalType": "uint256",
          "name": "newDepositId",
          "type": "uint256"
        }
      ],
      "stateMutability": "nonpayable",
      "type": "function"
    },
    {
      "inputs": [
        {
          "internalType": "address",
          "name": "owner",
          "type": "address"
        }
      ],
      "name": "balanceOf",
      "outputs": [
        {
          "internalType": "uint256",
          "name": "",
          "type": "uint256"
        }
      ],
      "stateMutability": "view",
      "type": "function"
    },
    {
      "inputs": [
        {
          "internalType": "uint256",
          "name": "depositId",
          "type": "uint256"
        }
      ],
      "name": "claimPendingInterest",
      "outputs": [],
      "stateMutability": "nonpayable",
      "type": "function"
    },
    {
      "inputs": [
        {
          "internalType": "uint256",
          "name": "tenorDays",
          "type": "uint256"
        },
        {
          "internalType": "uint256",
          "name": "aprBps",
          "type": "uint256"
        },
        {
          "internalType": "uint256",
          "name": "minDeposit",
          "type": "uint256"
        },
        {
          "internalType": "uint256",
          "name": "maxDeposit",
          "type": "uint256"
        },
        {
          "internalType": "uint256",
          "name": "earlyWithdrawPenaltyBps",
          "type": "uint256"
        },
        {
          "internalType": "bool",
          "name": "enabled",
          "type": "bool"
        }
      ],
      "name": "createPlan",
      "outputs": [
        {
          "internalType": "uint256",
          "name": "planId",
          "type": "uint256"
        }
      ],
      "stateMutability": "nonpayable",
      "type": "function"
    },
    {
      "inputs": [],
      "name": "depositCount",
      "outputs": [
        {
          "internalType": "uint256",
          "name": "",
          "type": "uint256"
        }
      ],
      "stateMutability": "view",
      "type": "function"
    },
    {
      "inputs": [
        {
          "internalType": "uint256",
          "name": "planId",
          "type": "uint256"
        }
      ],
      "name": "disablePlan",
      "outputs": [],
      "stateMutability": "nonpayable",
      "type": "function"
    },
    {
      "inputs": [
        {
          "internalType": "uint256",
          "name": "depositId",
          "type": "uint256"
        }
      ],
      "name": "earlyWithdraw",
      "outputs": [],
      "stateMutability": "nonpayable",
      "type": "function"
    },
    {
      "inputs": [
        {
          "internalType": "uint256",
          "name": "planId",
          "type": "uint256"
        }
      ],
      "name": "enablePlan",
      "outputs": [],
      "stateMutability": "nonpayable",
      "type": "function"
    },
    {
      "inputs": [
        {
          "internalType": "uint256",
          "name": "tokenId",
          "type": "uint256"
        }
      ],
      "name": "getApproved",
      "outputs": [
        {
          "internalType": "address",
          "name": "",
          "type": "address"
        }
      ],
      "stateMutability": "view",
      "type": "function"
    },
    {
      "inputs": [
        {
          "internalType": "uint256",
          "name": "depositId",
          "type": "uint256"
        }
      ],
      "name": "getDeposit",
      "outputs": [
        {
          "components": [
            {
              "internalType": "uint256",
              "name": "planId",
              "type": "uint256"
            },
            {
              "internalType": "uint256",
              "name": "principal",
              "type": "uint256"
            },
            {
              "internalType": "uint256",
              "name": "startedAt",
              "type": "uint256"
            },
            {
              "internalType": "uint256",
              "name": "maturityAt",
              "type": "uint256"
            },
            {
              "internalType": "uint256",
              "name": "tenorDays",
              "type": "uint256"
            },
            {
              "internalType": "uint256",
              "name": "aprBpsAtOpen",
              "type": "uint256"
            },
            {
              "internalType": "uint256",
              "name": "penaltyBpsAtOpen",
              "type": "uint256"
            },
            {
              "internalType": "enum SavingCore.DepositStatus",
              "name": "status",
              "type": "uint8"
            }
          ],
          "internalType": "struct SavingCore.Deposit",
          "name": "",
          "type": "tuple"
        }
      ],
      "stateMutability": "view",
      "type": "function"
    },
    {
      "inputs": [
        {
          "internalType": "uint256",
          "name": "planId",
          "type": "uint256"
        }
      ],
      "name": "getPlan",
      "outputs": [
        {
          "components": [
            {
              "internalType": "uint256",
              "name": "tenorDays",
              "type": "uint256"
            },
            {
              "internalType": "uint256",
              "name": "aprBps",
              "type": "uint256"
            },
            {
              "internalType": "uint256",
              "name": "minDeposit",
              "type": "uint256"
            },
            {
              "internalType": "uint256",
              "name": "maxDeposit",
              "type": "uint256"
            },
            {
              "internalType": "uint256",
              "name": "earlyWithdrawPenaltyBps",
              "type": "uint256"
            },
            {
              "internalType": "bool",
              "name": "enabled",
              "type": "bool"
            }
          ],
          "internalType": "struct SavingCore.Plan",
          "name": "",
          "type": "tuple"
        }
      ],
      "stateMutability": "view",
      "type": "function"
    },
    {
      "inputs": [
        {
          "internalType": "uint256",
          "name": "depositId",
          "type": "uint256"
        }
      ],
      "name": "interestClaimant",
      "outputs": [
        {
          "internalType": "address",
          "name": "claimant",
          "type": "address"
        }
      ],
      "stateMutability": "view",
      "type": "function"
    },
    {
      "inputs": [
        {
          "internalType": "address",
          "name": "owner",
          "type": "address"
        },
        {
          "internalType": "address",
          "name": "operator",
          "type": "address"
        }
      ],
      "name": "isApprovedForAll",
      "outputs": [
        {
          "internalType": "bool",
          "name": "",
          "type": "bool"
        }
      ],
      "stateMutability": "view",
      "type": "function"
    },
    {
      "inputs": [
        {
          "internalType": "uint256",
          "name": "depositId",
          "type": "uint256"
        },
        {
          "internalType": "uint256",
          "name": "newPlanId",
          "type": "uint256"
        }
      ],
      "name": "manualRenew",
      "outputs": [
        {
          "internalType": "uint256",
          "name": "newDepositId",
          "type": "uint256"
        }
      ],
      "stateMutability": "nonpayable",
      "type": "function"
    },
    {
      "inputs": [],
      "name": "name",
      "outputs": [
        {
          "internalType": "string",
          "name": "",
          "type": "string"
        }
      ],
      "stateMutability": "view",
      "type": "function"
    },
    {
      "inputs": [
        {
          "internalType": "uint256",
          "name": "planId",
          "type": "uint256"
        },
        {
          "internalType": "uint256",
          "name": "amount",
          "type": "uint256"
        }
      ],
      "name": "openDeposit",
      "outputs": [
        {
          "internalType": "uint256",
          "name": "depositId",
          "type": "uint256"
        }
      ],
      "stateMutability": "nonpayable",
      "type": "function"
    },
    {
      "inputs": [],
      "name": "owner",
      "outputs": [
        {
          "internalType": "address",
          "name": "",
          "type": "address"
        }
      ],
      "stateMutability": "view",
      "type": "function"
    },
    {
      "inputs": [
        {
          "internalType": "uint256",
          "name": "tokenId",
          "type": "uint256"
        }
      ],
      "name": "ownerOf",
      "outputs": [
        {
          "internalType": "address",
          "name": "",
          "type": "address"
        }
      ],
      "stateMutability": "view",
      "type": "function"
    },
    {
      "inputs": [],
      "name": "pause",
      "outputs": [],
      "stateMutability": "nonpayable",
      "type": "function"
    },
    {
      "inputs": [],
      "name": "paused",
      "outputs": [
        {
          "internalType": "bool",
          "name": "",
          "type": "bool"
        }
      ],
      "stateMutability": "view",
      "type": "function"
    },
    {
      "inputs": [
        {
          "internalType": "uint256",
          "name": "depositId",
          "type": "uint256"
        }
      ],
      "name": "pendingInterest",
      "outputs": [
        {
          "internalType": "uint256",
          "name": "amount",
          "type": "uint256"
        }
      ],
      "stateMutability": "view",
      "type": "function"
    },
    {
      "inputs": [],
      "name": "pendingOwner",
      "outputs": [
        {
          "internalType": "address",
          "name": "",
          "type": "address"
        }
      ],
      "stateMutability": "view",
      "type": "function"
    },
    {
      "inputs": [],
      "name": "planCount",
      "outputs": [
        {
          "internalType": "uint256",
          "name": "",
          "type": "uint256"
        }
      ],
      "stateMutability": "view",
      "type": "function"
    },
    {
      "inputs": [],
      "name": "renounceOwnership",
      "outputs": [],
      "stateMutability": "nonpayable",
      "type": "function"
    },
    {
      "inputs": [
        {
          "internalType": "address",
          "name": "from",
          "type": "address"
        },
        {
          "internalType": "address",
          "name": "to",
          "type": "address"
        },
        {
          "internalType": "uint256",
          "name": "tokenId",
          "type": "uint256"
        }
      ],
      "name": "safeTransferFrom",
      "outputs": [],
      "stateMutability": "nonpayable",
      "type": "function"
    },
    {
      "inputs": [
        {
          "internalType": "address",
          "name": "from",
          "type": "address"
        },
        {
          "internalType": "address",
          "name": "to",
          "type": "address"
        },
        {
          "internalType": "uint256",
          "name": "tokenId",
          "type": "uint256"
        },
        {
          "internalType": "bytes",
          "name": "data",
          "type": "bytes"
        }
      ],
      "name": "safeTransferFrom",
      "outputs": [],
      "stateMutability": "nonpayable",
      "type": "function"
    },
    {
      "inputs": [
        {
          "internalType": "address",
          "name": "operator",
          "type": "address"
        },
        {
          "internalType": "bool",
          "name": "approved",
          "type": "bool"
        }
      ],
      "name": "setApprovalForAll",
      "outputs": [],
      "stateMutability": "nonpayable",
      "type": "function"
    },
    {
      "inputs": [
        {
          "internalType": "bytes4",
          "name": "interfaceId",
          "type": "bytes4"
        }
      ],
      "name": "supportsInterface",
      "outputs": [
        {
          "internalType": "bool",
          "name": "",
          "type": "bool"
        }
      ],
      "stateMutability": "view",
      "type": "function"
    },
    {
      "inputs": [],
      "name": "symbol",
      "outputs": [
        {
          "internalType": "string",
          "name": "",
          "type": "string"
        }
      ],
      "stateMutability": "view",
      "type": "function"
    },
    {
      "inputs": [],
      "name": "token",
      "outputs": [
        {
          "internalType": "contract IERC20",
          "name": "",
          "type": "address"
        }
      ],
      "stateMutability": "view",
      "type": "function"
    },
    {
      "inputs": [
        {
          "internalType": "uint256",
          "name": "tokenId",
          "type": "uint256"
        }
      ],
      "name": "tokenURI",
      "outputs": [
        {
          "internalType": "string",
          "name": "",
          "type": "string"
        }
      ],
      "stateMutability": "view",
      "type": "function"
    },
    {
      "inputs": [],
      "name": "totalReservedInterest",
      "outputs": [
        {
          "internalType": "uint256",
          "name": "",
          "type": "uint256"
        }
      ],
      "stateMutability": "view",
      "type": "function"
    },
    {
      "inputs": [
        {
          "internalType": "address",
          "name": "from",
          "type": "address"
        },
        {
          "internalType": "address",
          "name": "to",
          "type": "address"
        },
        {
          "internalType": "uint256",
          "name": "tokenId",
          "type": "uint256"
        }
      ],
      "name": "transferFrom",
      "outputs": [],
      "stateMutability": "nonpayable",
      "type": "function"
    },
    {
      "inputs": [
        {
          "internalType": "address",
          "name": "newOwner",
          "type": "address"
        }
      ],
      "name": "transferOwnership",
      "outputs": [],
      "stateMutability": "nonpayable",
      "type": "function"
    },
    {
      "inputs": [],
      "name": "unpause",
      "outputs": [],
      "stateMutability": "nonpayable",
      "type": "function"
    },
    {
      "inputs": [
        {
          "internalType": "uint256",
          "name": "planId",
          "type": "uint256"
        },
        {
          "internalType": "uint256",
          "name": "newAprBps",
          "type": "uint256"
        }
      ],
      "name": "updatePlan",
      "outputs": [],
      "stateMutability": "nonpayable",
      "type": "function"
    },
    {
      "inputs": [],
      "name": "vaultManager",
      "outputs": [
        {
          "internalType": "contract VaultManager",
          "name": "",
          "type": "address"
        }
      ],
      "stateMutability": "view",
      "type": "function"
    },
    {
      "inputs": [
        {
          "internalType": "uint256",
          "name": "depositId",
          "type": "uint256"
        }
      ],
      "name": "withdrawAtMaturity",
      "outputs": [],
      "stateMutability": "nonpayable",
      "type": "function"
    }
  ],
  "transactionHash": "0xbfcd2b495cac445e3f7af8c29d9d93fdbf6ff2e491d788f4392d67945d3c3883",
  "args": [
    "0xcf779EC5D80573D3254054a17c5B4f0117491662",
    "0xA79F660FaB4Ebae6Ac4298034Cb3FD6d28e5D2f7",
    "0xA998526b0A5F23680f50fa3677f5c6576Dba89d9"
  ],
  "numDeployments": 1,
  "solcInputHash": "20cbb21c568cb985bde5e26ceea9902d",
  "bytecode": "0x60c0604052346104c25761379f6060813803918261001c816104c7565b9384928339810103126104c257610032816104ec565b61004a6040610043602085016104ec565b93016104ec565b9161005560406104c7565b92601c84527f5361666542616e6b204465706f73697420436572746966696361746500000000602085015261008a60406104c7565b60048152635342444360e01b6020820152845190946001600160401b0382116103c25760005490600182811c921680156104b8575b60208310146103a25781601f849311610449575b50602090601f83116001146103e3576000926103d8575b50508160011b916000199060031b1c1916176000555b83516001600160401b0381116103c257600154600181811c911680156103b8575b60208210146103a257601f811161033d575b50602094601f82116001146102d6579481929394956000926102cb575b50508160011b916000199060031b1c1916176001555b6001600160a01b03169182156102b557600780546001600160a01b0319908116909155600680549182168517905560405193906001600160a01b03167f8be0079c531659141344cd1fd0a4f28419497f9722a3daafe3b4186f6b6457e0600080a360016008556001600160a01b03811690811580156102a4575b610293573b1561027f57813b1561025d576080526001600160a01b031660a05261329e9081610501823960805181818161113f01528181611170015281816118d4015281816121c7015261255c015260a051818181610b4e01528181610e0a0152818161109d0152818161164701528181611f17015261224b0152f35b50637844cbf560e11b60009081526001600160a01b0391909116600452602490fd5b637844cbf560e11b60005260045260246000fd5b63e6c4247b60e01b60005260046000fd5b506001600160a01b038316156101e0565b631e4fbdf760e01b600052600060045260246000fd5b015190503880610150565b601f198216956001600052806000209160005b8881106103255750836001959697981061030c575b505050811b01600155610166565b015160001960f88460031b161c191690553880806102fe565b919260206001819286850151815501940192016102e9565b60016000527fb10e2d527612073b26eecdfd717e6a320cf44b4afac2b0732d9fcbe2b7fa0cf6601f830160051c81019160208410610398575b601f0160051c01905b81811061038c5750610133565b6000815560010161037f565b9091508190610376565b634e487b7160e01b600052602260045260246000fd5b90607f1690610121565b634e487b7160e01b600052604160045260246000fd5b0151905038806100ea565b60008080528281209350601f198516905b8181106104315750908460019594939210610418575b505050811b01600055610100565b015160001960f88460031b161c1916905538808061040a565b929360206001819287860151815501950193016103f4565b600080529091507f290decd9548b62a8d60345a988386fc84ba6bc95484008f6362f93160ef3e563601f840160051c810191602085106104ae575b90601f859493920160051c01905b81811061049f57506100d3565b60008155849350600101610492565b9091508190610484565b91607f16916100bf565b600080fd5b6040519190601f01601f191682016001600160401b038111838210176103c257604052565b51906001600160a01b03821682036104c25756fe6080604052600436101561001257600080fd5b60003560e01c8062e1801c1461032757806301ffc9a7146103225780630225d3cc1461025557806306fdde031461031d578063081812fc1461031857806308cff7e214610313578063095ea7b31461030e578063162757df146103095780631f0d13d71461030457806323b872dd146102ff57806326cd5274146102fa5780632dfdf0b5146102f55780632fc11c0f146102f057806336aaa8ec146102eb578063382d39bb146102e65780633945c080146102555780633f4ba83a146102e157806342842e0e146102dc578063516db3ae146102d757806351c7e8d5146102d2578063553e0d2b146102cd5780635638b4ec1461026e5780635c975abb146102c85780636352211e146102c35780636b5b9696146102be5780636fc4e2d9146102b957806370a08231146102b4578063715018a6146102af57806374792d4d146102aa57806379ba5097146102a55780638456cb59146102a05780638a4adf241461029b5780638da5cb5b1461029657806395d89b411461029157806395da59b41461028c5780639cacb6a4146102875780639f9fb96814610282578063a22cb4651461027d578063ac208f1314610278578063b88d4fde14610273578063bc3acac51461026e578063c1a287e214610269578063c6753c8914610264578063c87b56dd1461025f578063d68b39521461025a578063e1a4521814610255578063e30c397814610250578063e985e9c51461024b578063f2fde38b146102465763fc0c546a1461024157600080fd5b61253c565b6124c9565b61245f565b612438565b610472565b612109565b6120ad565b611d54565b611d36565b610f37565b611ca5565b611bd8565b611b01565b611a2d565b61177f565b61174a565b611692565b61166b565b611627565b6115b6565b611510565b6113d2565b611358565b6112e5565b611247565b610fa8565b610f79565b610f53565b610d68565b610d4c565b610d2f565b610cf9565b610c71565b610c53565b61099c565b610970565b610952565b61086a565b610853565b610809565b6107ec565b6106c1565b610614565b6105d5565b6104e2565b6103ad565b34610396576040366003190112610396576004357fc00f69016813c0714e0c2e862fef4d363b0d3a40691e530f1038d580bba6e07b60206024356103696128ba565b610372846128ce565b61037b81612916565b83600052600b825280600160406000200155604051908152a2005b600080fd5b6001600160e01b031981160361039657565b346103965760203660031901126103965760206001600160e01b03196004356103d58161039b565b167f80ac58cd00000000000000000000000000000000000000000000000000000000811490811561043d575b8115610413575b506040519015158152f35b7f01ffc9a70000000000000000000000000000000000000000000000000000000091501438610408565b7f5b5e139f0000000000000000000000000000000000000000000000000000000081149150610401565b600091031261039657565b346103965760003660031901126103965760206040516127108152f35b919082518082526020808301940160005b8281106104be575050600081602094950152601f8019910116010190565b81810151868201526020016104a0565b9060206104df92818152019061048f565b90565b3461039657600036600319011261039657604051600080548060011c90600181169081156105cb575b6020831082146105b757828552602085019190811561059e575060011461054d575b6105498461053d81860382611c48565b604051918291826104ce565b0390f35b60008080529250907f290decd9548b62a8d60345a988386fc84ba6bc95484008f6362f93160ef3e5635b81841061058a5750500161053d8261052d565b805484840152602090930192600101610577565b60ff191682525090151560051b01905061053d8261052d565b602484634e487b7160e01b81526022600452fd5b91607f169161050b565b34610396576020366003190112610396576004356105f281612960565b50600052600460205260206001600160a01b0360406000205416604051908152f35b34610396576020366003190112610396576004356106306128ba565b610639816128ce565b80600052600b6020526005604060002001805460ff8116156106825760ff191690557fb8e8c474ecb4c62992ecd0758ae63d861cd288bb6677ea65a2b783444a448ab6600080a2005b827f69aced8c0000000000000000000000000000000000000000000000000000000060005260045260246000fd5b6001600160a01b0381160361039657565b34610396576040366003190112610396576004356106de816106b0565b602435906106eb82612960565b331515806107d9575b80610795575b610766578261076493610749926001600160a01b0380861691167f8c5be1e5ebec7d5bd14f71427d1e84f3dd0314c0f7b2291e5b200ac8c7c3b925600080a46000526004602052604060002090565b906001600160a01b03166001600160a01b0319825416179055565b005b7fa9fbf51f000000000000000000000000000000000000000000000000000000006000523360045260245b6000fd5b5060ff6107d1336107b9846001600160a01b03166000526005602052604060002090565b906001600160a01b0316600052602052604060002090565b5416156106fa565b50336001600160a01b03821614156106f4565b346103965760003660031901126103965760206040516102ee8152f35b34610396576000366003190112610396576020600f54604051908152f35b60609060031901126103965760043561083f816106b0565b9060243561084c816106b0565b9060443590565b346103965761076461086436610827565b91612580565b3461039657602036600319011261039657600435600060a060405161088e81611c0a565b82815282602082015282604082015282606082015282608082015201526108b4816128ce565b600052600b602052610549604060002060ff6005604051926108d584611c0a565b8054845260018101546020850152600281015460408501526003810154606085015260048101546080850152015416151560a08201526040519182918291909160a08060c0830194805184526020810151602085015260408101516040850152606081015160608501526080810151608085015201511515910152565b34610396576000366003190112610396576020600a54604051908152f35b3461039657602036600319011261039657600435600052600d6020526020604060002054604051908152f35b34610396576020366003190112610396576004356109b8612997565b6109c06129d0565b6109c981612a0b565b6109dd81600052600c602052604060002090565b60078101805460ff166109ef816119a4565b80610c3e5750610a02600383015461273d565b92834210610c08579081610a18610a8193612960565b845492610aea600187015491610ada600489015491600660058b01549a01548a610a5885610a51610a4a82858c612a53565b809a612752565b9d8e612a53565b94610a8e610a6e610a688361275f565b42612752565b94610a7a600a54612779565b9d8e600a55565b805460ff19166003179055565b610a96611c6a565b938b85528d60208601524260408601526060850152608084015260a083015260c0820152600060e0820152610ad589600052600c602052604060002090565b612794565b610ae48386612a89565b86612adb565b80610b42575b50907fb1b211621c7e47521075db324d1489630d26ee6d36e9674a4fc5cef27eeee8e1610b3561054996610b25878096612b2f565b6040519081529081906020820190565b0390a4610b256001600855565b91906001600160a01b037f000000000000000000000000000000000000000000000000000000000000000016803b1561039657604051630dbb11df60e11b815230600482015260248101949094526000908490604490829084905af1908115610c035761054996610b2587610b359381977fb1b211621c7e47521075db324d1489630d26ee6d36e9674a4fc5cef27eeee8e196610be8575b509596505050965050610af0565b80610bf76000610bfd93611c48565b80610467565b8b610bda565b6127ff565b7f8f00fd7a0000000000000000000000000000000000000000000000000000000060005260045260248390524260445260646000fd5b6107919084632cc1757560e11b600052612714565b34610396576000366003190112610396576020600954604051908152f35b3461039657600036600319011261039657610c8a6128ba565b60075460ff8160a01c1615610ccf5760ff60a01b19166007557f5db9ee0a495bf2e6ff9c91a7834c1ba4fdd244a5e8aa4e537bd38aeae4b073aa6020604051338152a1005b7f8dfc202b0000000000000000000000000000000000000000000000000000000060005260046000fd5b3461039657610764610d0a36610827565b9060405192610d1a602085611c48565b60008452610d29838383612580565b33612fcc565b34610396576000366003190112610396576020604051610e428152f35b3461039657600036600319011261039657602060405160c88152f35b3461039657602036600319011261039657600435610d84612997565b610d8c6129d0565b610d9581612a0b565b610da981600052600d602052604060002090565b54908115610f0a57610dd5610dc882600052600e602052604060002090565b546001600160a01b031690565b6001600160a01b03811692833303610ec9576000838152600d6020526040812055610e008184612a89565b6001600160a01b037f000000000000000000000000000000000000000000000000000000000000000016803b1561039657604051630dbb11df60e11b81526001600160a01b03939093166004840152602483018290526000908390604490829084905af1908115610c03577fbc85df67c8c50b1c4d70cd82419a5dff0ecc922761422fca0ccc864c53bf55d092610ea792610eb4575b506040519081529081906020820190565b0390a36107646001600855565b80610bf76000610ec393611c48565b38610e96565b507f46b58d0700000000000000000000000000000000000000000000000000000000600052600491909152336024526001600160a01b031660445260646000fd5b7fc7f30fde0000000000000000000000000000000000000000000000000000000060005260045260246000fd5b3461039657600036600319011261039657602060405160018152f35b3461039657600036600319011261039657602060ff60075460a01c166040519015158152f35b34610396576020366003190112610396576020610f97600435612960565b6001600160a01b0360405191168152f35b3461039657602036600319011261039657600435610fc4612997565b610fcc6129d0565b610fd581612a0b565b610fe981600052600c602052604060002090565b9060078201610ff9815460ff1690565b611002816119a4565b80611232575061101182612960565b926001600160a01b0384169384330361120c576003820154804210156111d65750600182015490611046600684015483612c49565b611065611053828561280b565b94600460058201549101549085612a53565b91604051947fb3f006740000000000000000000000000000000000000000000000000000000086526020866004816001600160a01b037f0000000000000000000000000000000000000000000000000000000000000000165afa938415610c03577f5d9a2c873b77448f60d674e17f5c6236d1c59646f5fb9db39b36afc83e4471bc97610ea79760009661119b575b50805460ff1916600117905561110b905b89612d19565b8061116a575b505080611139575b505060408051918252600060208301526001908201529081906060820190565b611163917f0000000000000000000000000000000000000000000000000000000000000000612d4b565b3880611119565b611194917f0000000000000000000000000000000000000000000000000000000000000000612d4b565b3880611111565b61110b929196506111c66111059160203d6020116111cf575b6111be8183611c48565b810190612818565b969192506110f4565b503d6111b4565b7f3be8555b0000000000000000000000000000000000000000000000000000000060005260048590526024524260445260646000fd5b63abc0fadf60e01b6000526004849052336024526001600160a01b031660445260646000fd5b6107919083632cc1757560e11b600052612714565b34610396576020366003190112610396576004356112636128ba565b61126c816128ce565b80600052600b6020526005604060002001805460ff81166112b75760ff191660011790557fb612d30e3c65a1caa935f7d17e7932c14e41c1410d52b8bc355f937b46e257f7600080a2005b827f9315abfe0000000000000000000000000000000000000000000000000000000060005260045260246000fd5b34610396576020366003190112610396576001600160a01b0360043561130a816106b0565b1680156113295760005260036020526020604060002054604051908152f35b7f89c62b6400000000000000000000000000000000000000000000000000000000600052600060045260246000fd5b34610396576000366003190112610396576113716128ba565b6001600160a01b03196007541660075560006001600160a01b036006546001600160a01b03198116600655167f8be0079c531659141344cd1fd0a4f28419497f9722a3daafe3b4186f6b6457e08280a3005b60a43590811515820361039657565b346103965760c0366003190112610396576004356084356064356024356044356113fa6113c3565b6114026128ba565b600186108015611505575b6114d757946114b7839261149e610549986114487f3c23b7bbdb7ee0acd2bf877ca1c70aa85ad90f581c13076913998f20b6e1e9b997612916565b61145189612da5565b61145b8884612dde565b611466600954612779565b9889986114728a600955565b61147a611c7a565b9487865288602087015260408601526060850152608084015260a083019015159052565b6114b286600052600b602052604060002090565b61282d565b604080519182526020820192909252a26040519081529081906020820190565b857f39bd3f970000000000000000000000000000000000000000000000000000000060005260045260246000fd5b50610e42861161140d565b3461039657600036600319011261039657336001600160a01b036007541603611588576001600160a01b031960075416600755600654336001600160a01b03198216176006556001600160a01b033391167f8be0079c531659141344cd1fd0a4f28419497f9722a3daafe3b4186f6b6457e0600080a3005b7f118cdaa7000000000000000000000000000000000000000000000000000000006000523360045260246000fd5b34610396576000366003190112610396576115cf6128ba565b6115d7612997565b7401000000000000000000000000000000000000000060ff60a01b1960075416176007557f62e78cea01bee320cd4e420270b5ea74000d11b0c9f74754ebdbfc544b05a2586020604051338152a1005b346103965760003660031901126103965760206040516001600160a01b037f0000000000000000000000000000000000000000000000000000000000000000168152f35b346103965760003660031901126103965760206001600160a01b0360065416604051908152f35b346103965760003660031901126103965760405160006001548060011c9060018116908115611740575b6020831082146105b757828552602085019190811561059e57506001146116ed576105498461053d81860382611c48565b600160009081529250907fb10e2d527612073b26eecdfd717e6a320cf44b4afac2b0732d9fcbe2b7fa0cf65b81841061172c5750500161053d8261052d565b805484840152602090930192600101611719565b91607f16916116bc565b3461039657602036600319011261039657600435600052600e60205260206001600160a01b0360406000205416604051908152f35b346103965760403660031901126103965760243560043561179e612997565b6117a66129d0565b6117af816128ce565b6117cb6117c682600052600b602052604060002090565b6126c9565b906117e06117dc60a0840151151590565b1590565b6119905782156119665760408201518015158061195d575b611944575060608201518015158061193b575b611922575061054992611821610a68845161275f565b927f52d2793a15a45afe082fb4953a3066325a37798a817eda31164e20e1c67bac3b61184e600a54612779565b94859261185a84600a55565b6118cc6118c68251926118bb6020820194855160808401519061187b611c6a565b928d84528c6020850152426040850152896060850152608084015260a083015260c0820152600060e0820152610ad589600052600c602052604060002090565b835190519088612a53565b85612adb565b6118f88530337f0000000000000000000000000000000000000000000000000000000000000000612e37565b6119028433612b2f565b516040805195865260208601929092529084015233928060608101610b35565b63583a2b8d60e11b600052600484905260245260446000fd5b5080841161180b565b63ed28d08960e01b600052600484905260245260446000fd5b508084106117f8565b7f2c5211c60000000000000000000000000000000000000000000000000000000060005260046000fd5b6385a95ab760e01b60005260045260246000fd5b600411156119ae57565b634e487b7160e01b600052602160045260246000fd5b9060048210156119ae5752565b611a2b9092919260e080610100830195805184526020810151602085015260408101516040850152606081015160608501526080810151608085015260a081015160a085015260c081015160c085015201519101906119c4565b565b3461039657602036600319011261039657600435600060e0604051611a5181611c2b565b8281528260208201528260408201528260608201528260808201528260a08201528260c08201520152611a8381612a0b565b600052600c6020526105496040600020611af5611aec6007611aa3611c6a565b938054855260018101546020860152600281015460408601526003810154606086015260048101546080860152600581015460a0860152600681015460c0860152015460ff1690565b60e08301612788565b604051918291826119d1565b3461039657604036600319011261039657600435611b1e816106b0565b6024358015158103610396576001600160a01b038216918215611baa5781611b69611b7a923360005260056020526040600020906001600160a01b0316600052602052604060002090565b9060ff801983541691151516179055565b60405190151581527f17307eab39ab6107e8899845ad3d59bd9653f200f220920489ca2b5937696c3160203392a3005b827f5b08ba180000000000000000000000000000000000000000000000000000000060005260045260246000fd5b3461039657600036600319011261039657602060405160b48152f35b634e487b7160e01b600052604160045260246000fd5b60c0810190811067ffffffffffffffff821117611c2657604052565b611bf4565b610100810190811067ffffffffffffffff821117611c2657604052565b90601f8019910116810190811067ffffffffffffffff821117611c2657604052565b60405190611a2b61010083611c48565b60405190611a2b60c083611c48565b67ffffffffffffffff8111611c2657601f01601f191660200190565b3461039657608036600319011261039657600435611cc2816106b0565b60243590611ccf826106b0565b6044356064359267ffffffffffffffff8411610396573660238501121561039657836004013592611cff84611c89565b93611d0d6040519586611c48565b808552366024828801011161039657602081600092602461076499018389013786010152612878565b346103965760003660031901126103965760206040516202a3008152f35b3461039657604036600319011261039657602435600435611d73612997565b611d7b6129d0565b611d8481612a0b565b611d9881600052600c602052604060002090565b916007830191611da9835460ff1690565b611db2816119a4565b806120995750611dc181612960565b6001600160a01b038116330361207257600385015480421061205557611de69061273d565b8042101561201f5750611df8836128ce565b611e0f6117c684600052600b602052604060002090565b94611e206117dc60a0880151151590565b61200957611e48611e41600183015492600460058201549101549084612a53565b8092612752565b956020810190611e5c82518251908a612a53565b91604082015180151580612000575b611fe75750606082015180151580611fde575b611fc5575081610ada91611e99610a68611ed196955161275f565b91611ebf611ea8600a54612779565b9b611eb28d600a55565b805460ff19166002179055565b60808151925191015191610a96611c6a565b80611f0b5750907fb1b211621c7e47521075db324d1489630d26ee6d36e9674a4fc5cef27eeee8e1610b3561054996610b25878096612b2f565b91906001600160a01b037f000000000000000000000000000000000000000000000000000000000000000016803b1561039657604051630dbb11df60e11b815230600482015260248101949094526000908490604490829084905af1908115610c035761054996610b2587610b359381977fb1b211621c7e47521075db324d1489630d26ee6d36e9674a4fc5cef27eeee8e196611fb057509596505050965050610af0565b80610bf76000611fbf93611c48565b38610bda565b63583a2b8d60e11b60005260048a905260245260446000fd5b50808a11611e7e565b63ed28d08960e01b60005260048a905260245260446000fd5b50808a10611e6b565b6385a95ab760e01b600052600484905260246000fd5b7f4dc829f20000000000000000000000000000000000000000000000000000000060005260048390526024524260445260646000fd5b63ea09fce560e01b60005260048390526024524260445260646000fd5b63abc0fadf60e01b600052600491909152336024526001600160a01b031660445260646000fd5b61079191632cc1757560e11b600052612714565b346103965760006020366003190112612106576120cb600435612960565b50806040516120db602082611c48565b52506105496040516120ee602082611c48565b6000815260405191829160208352602083019061048f565b80fd5b3461039657602036600319011261039657600435612125612997565b61212d6129d0565b61213681612a0b565b61214a81600052600c602052604060002090565b906007820161215a815460ff1690565b612163816119a4565b80611232575061217282612960565b926001600160a01b0384169384330361120c57600382015480421061241b57506121ac600183015492600460058201549101549084612a53565b906121c0600094600160ff19825416179055565b6121eb83827f0000000000000000000000000000000000000000000000000000000000000000612d4b565b81612238575b5050907f5d9a2c873b77448f60d674e17f5c6236d1c59646f5fb9db39b36afc83e4471bc91610ea76040519283928360409060009294936060820195825260208201520152565b61224182613069565b6001600160a01b037f000000000000000000000000000000000000000000000000000000000000000016803b1561039657604051630dbb11df60e11b81526001600160a01b038316600482015260248101849052906000908290604490829084905af19081612406575b506123a2576122b861288a565b80519060006004831015612397575b6001600160e01b03197fbce5067100000000000000000000000000000000000000000000000000000000911603612392575050847fbdeb895a2cb1ecb7752599547f72256ae8baa87d1f66623d727632691a8213d061238684610b258a9561235c6123577f5d9a2c873b77448f60d674e17f5c6236d1c59646f5fb9db39b36afc83e4471bc9b9a99600f54612752565b600f55565b8261237187600052600d602052604060002090565b5561074986600052600e602052604060002090565b0390a35b9091386121f1565b602001fd5b5060208101516122c7565b50600f546040805183815260208101929092527f5d9a2c873b77448f60d674e17f5c6236d1c59646f5fb9db39b36afc83e4471bc945091929185917fa97b530fec18d97465aadcc60f6b47cf5a4e74fd13b3013ad2acf12e2d4490649190a261238a565b80610bf7600061241593611c48565b386122ab565b63ea09fce560e01b60005260048590526024524260445260646000fd5b346103965760003660031901126103965760206001600160a01b0360075416604051908152f35b3461039657604036600319011261039657602060ff6124bd600435612483816106b0565b6001600160a01b0360243591612498836106b0565b16600052600584526040600020906001600160a01b0316600052602052604060002090565b54166040519015158152f35b34610396576020366003190112610396576001600160a01b036004356124ee816106b0565b6124f66128ba565b16806001600160a01b031960075416176007556001600160a01b03600654167f38d16b8cac22d99fc7c124b9cd0de2d3fa1faef420bfe791d8c362d765e22700600080a3005b346103965760003660031901126103965760206040516001600160a01b037f0000000000000000000000000000000000000000000000000000000000000000168152f35b9190916001600160a01b0383169081156126b3576001600160a01b0391836000526002602052836125bd60406000206001600160a01b0390541690565b91336126a3575b6126098584169788612670575b6125ee816001600160a01b03166000526003602052604060002090565b60018154019055610749846000526002602052604060002090565b867fddf252ad1be2c89b69c2b068fc378daa952ba7f163c4a11628f55a4df523b3ef600080a4501680830361263d57505050565b7f64283d7b0000000000000000000000000000000000000000000000000000000060005260045260245260445260646000fd5b612679846130b3565b612696856001600160a01b03166000526003602052604060002090565b80546000190190556125d1565b6126ae8233856130d7565b6125c4565b633250574960e11b600052600060045260246000fd5b906040516126d681611c0a565b60a060ff6005839580548552600181015460208601526002810154604086015260038101546060860152600481015460808601520154161515910152565b91906024611a2b916044946004526119c4565b634e487b7160e01b600052601160045260246000fd5b906202a300820180921161274d57565b612727565b9190820180921161274d57565b906201518082029180830462015180149015171561274d57565b600019811461274d5760010190565b60048210156119ae5752565b9060e0600791805184556020810151600185015560408101516002850155606081015160038501556080810151600485015560a0810151600585015560c081015160068501550151916127e6836119a4565b019060048110156119ae5760ff80198354169116179055565b6040513d6000823e3d90fd5b9190820391821161274d57565b9081602091031261039657516104df816106b0565b600560a0611a2b9380518455602081015160018501556040810151600285015560608101516003850155608081015160048501550151151591019060ff801983541691151516179055565b90611a2b939291610d29838383612580565b3d156128b5573d9061289b82611c89565b916128a96040519384611c48565b82523d6000602084013e565b606090565b6001600160a01b0360065416330361158857565b8015801561290b575b6128de5750565b7f6e95a4d30000000000000000000000000000000000000000000000000000000060005260045260246000fd5b5060095481116128d7565b600181108015612955575b6129285750565b7f5f6919820000000000000000000000000000000000000000000000000000000060005260045260246000fd5b506127108111612921565b8060005260026020526001600160a01b0360406000205416908115612983575090565b637e27328960e01b60005260045260246000fd5b60ff60075460a01c166129a657565b7fd93c06650000000000000000000000000000000000000000000000000000000060005260046000fd5b6002600854146129e1576002600855565b7f3ee5aeb50000000000000000000000000000000000000000000000000000000060005260046000fd5b80158015612a48575b612a1b5750565b7f78ad7caa0000000000000000000000000000000000000000000000000000000060005260045260246000fd5b50600a548111612a14565b91906201518082029180830462015180148115171561274d578102620151800291811591830414171561274d576104df91612cb0565b908015612ad75780612abb7fa97b530fec18d97465aadcc60f6b47cf5a4e74fd13b3013ad2acf12e2d44906492613069565b600f54604080519283526020830191909152819081015b0390a2565b5050565b908015612ad757600f5481810180911161274d57600f8190556040805192835260208301919091527f4c3d2d27c8b7e802289ea797f68159861c0ec3b4dfd5a4d313eb8e6e30ca82ab919081908101612ad2565b9060405190612b3f602083611c48565b600082526001600160a01b03831680156126b3576000908282526002602052826001600160a01b0360408420541691827fddf252ad1be2c89b69c2b068fc378daa952ba7f163c4a11628f55a4df523b3ef8115159586612c16575b612bb78a6001600160a01b03166000526003602052604060002090565b60018154019055612bd68a610749876000526002602052604060002090565b80a450612be757611a2b9233612ed4565b7f73c6ac6e00000000000000000000000000000000000000000000000000000000600052600060045260246000fd5b612c1f856130b3565b612c3c836001600160a01b03166000526003602052604060002090565b8054600019019055612b9a565b612c5382826131d2565b918115612ca557816127101115612c9e577fbc01a36e2eb1c432ca57a786c226809d495182a9930be0ded288ce703afb7e9193612710910990828211900360fc1b910360041c170290565b60116131e6565b506127109250500490565b612cba82826131d2565b918115612d0b578164496cebb8001115612c9e577fd18ce2d033892ab6710afe1da5f26d00b43f019695d75c72580c14ab81b64c479364496cebb800910990828211900360f51b9103600b1c170290565b5064496cebb8009250500490565b908015612ad75780612abb7f0db9d8f8b7bd9045356420e9a0a86776165261096b4f613921fe92e289d4341892613069565b6040517fa9059cbb0000000000000000000000000000000000000000000000000000000060208201526001600160a01b03929092166024830152604480830193909352918152611a2b91612da0606483611c48565b6131f7565b6127108111612db15750565b7f815bfd210000000000000000000000000000000000000000000000000000000060005260045260246000fd5b80151580612e2e575b80612e25575b612df5575050565b7f66c7ab7b0000000000000000000000000000000000000000000000000000000060005260045260245260446000fd5b50818111612ded565b50811515612de7565b9091926001600160a01b03611a2b9481604051957f23b872dd000000000000000000000000000000000000000000000000000000006020880152166024860152166044840152606483015260648252612da0608483611c48565b9081602091031261039657516104df8161039b565b90926001600160a01b03608093816104df97961684521660208301526040820152816060820152019061048f565b9092833b612ee3575b50505050565b602091612f076000926040519586948594630a85bd0160e11b865260048601612ea6565b038160006001600160a01b0387165af160009181612f9b575b50612f5c5750612f2e61288a565b8051919082612f5557633250574960e11b6000526001600160a01b03821660045260246000fd5b9050602001fd5b6001600160e01b0319630a85bd0160e11b911603612f7e575038808080612edd565b633250574960e11b6000526001600160a01b031660045260246000fd5b612fbe91925060203d602011612fc5575b612fb68183611c48565b810190612e91565b9038612f20565b503d612fac565b939193843b612fdd575b5050505050565b612ffe6020936040519586948594630a85bd0160e11b865260048601612ea6565b038160006001600160a01b0387165af160009181613048575b506130255750612f2e61288a565b6001600160e01b0319630a85bd0160e11b911603612f7e57503880808080612fd6565b61306291925060203d602011612fc557612fb68183611c48565b9038613017565b600f549080821061308257810390811161274d57600f55565b907f76376ecc0000000000000000000000000000000000000000000000000000000060005260045260245260446000fd5b6130c7906000526004602052604060002090565b80546001600160a01b0319169055565b9190916130f56001600160a01b038416801515908161315a57501590565b6130fe57505050565b6001600160a01b031661311f57637e27328960e01b60005260045260246000fd5b7f177e802f000000000000000000000000000000000000000000000000000000006000526001600160a01b0390911660045260245260446000fd5b6001600160a01b0384168082149250821561319b575b50811561317c57501590565b90508360005260046020526001600160a01b0360406000205416141590565b909150600052600560205260ff6131c9866040600020906001600160a01b0316600052602052604060002090565b54169038613170565b906000198183099102908180821091030391565b634e487b716000526020526024601cfd5b906000602091828151910182855af1156127ff576000513d61325f57506001600160a01b0381163b155b6132285750565b6001600160a01b03907f5274afe7000000000000000000000000000000000000000000000000000000006000521660045260246000fd5b6001141561322156fea26469706673582212205cfd17e1cb1b44c50d7b18a379e770fd68997097eed9fb712d160c540d6bc20064736f6c634300081c0033",
  "devdoc": {
    "details": "Implements saving-plan administration, deposit lifecycle operations,      ERC721 certificates, C1 principal-first settlement, and C2 aggregate      reserved-interest accounting exposed to VaultManager.",
    "errors": {
      "AddressIsNotContract(address)": [
        {
          "details": "A dependency address has no deployed bytecode."
        }
      ],
      "AutoRenewalTooEarly(uint256,uint256,uint256)": [
        {
          "details": "The permissionless auto-renew timestamp has not yet been reached."
        }
      ],
      "DepositAboveMaximum(uint256,uint256)": [
        {
          "details": "The supplied amount is above the selected plan's maximum."
        }
      ],
      "DepositAlreadyMatured(uint256,uint256,uint256)": [
        {
          "details": "The deposit has reached maturity and is no longer early-withdrawable."
        }
      ],
      "DepositBelowMinimum(uint256,uint256)": [
        {
          "details": "The supplied amount is below the selected plan's minimum."
        }
      ],
      "DepositNotActive(uint256,uint8)": [
        {
          "details": "The deposit has already reached a terminal lifecycle state."
        }
      ],
      "DepositNotMatured(uint256,uint256,uint256)": [
        {
          "details": "The deposit maturity timestamp has not yet been reached."
        }
      ],
      "ERC721IncorrectOwner(address,uint256,address)": [
        {
          "details": "Indicates an error related to the ownership over a particular token. Used in transfers.",
          "params": {
            "owner": "Address of the current owner of a token.",
            "sender": "Address whose tokens are being transferred.",
            "tokenId": "Identifier number of a token."
          }
        }
      ],
      "ERC721InsufficientApproval(address,uint256)": [
        {
          "details": "Indicates a failure with the `operator`’s approval. Used in transfers.",
          "params": {
            "operator": "Address that may be allowed to operate on tokens without being their owner.",
            "tokenId": "Identifier number of a token."
          }
        }
      ],
      "ERC721InvalidApprover(address)": [
        {
          "details": "Indicates a failure with the `approver` of a token to be approved. Used in approvals.",
          "params": {
            "approver": "Address initiating an approval operation."
          }
        }
      ],
      "ERC721InvalidOperator(address)": [
        {
          "details": "Indicates a failure with the `operator` to be approved. Used in approvals.",
          "params": {
            "operator": "Address that may be allowed to operate on tokens without being their owner."
          }
        }
      ],
      "ERC721InvalidOwner(address)": [
        {
          "details": "Indicates that an address can't be an owner. For example, `address(0)` is a forbidden owner in ERC-20. Used in balance queries.",
          "params": {
            "owner": "Address of the current owner of a token."
          }
        }
      ],
      "ERC721InvalidReceiver(address)": [
        {
          "details": "Indicates a failure with the token `receiver`. Used in transfers.",
          "params": {
            "receiver": "Address to which tokens are being transferred."
          }
        }
      ],
      "ERC721InvalidSender(address)": [
        {
          "details": "Indicates a failure with the token `sender`. Used in transfers.",
          "params": {
            "sender": "Address whose tokens are being transferred."
          }
        }
      ],
      "ERC721NonexistentToken(uint256)": [
        {
          "details": "Indicates a `tokenId` whose `owner` is the zero address.",
          "params": {
            "tokenId": "Identifier number of a token."
          }
        }
      ],
      "EnforcedPause()": [
        {
          "details": "The operation failed because the contract is paused."
        }
      ],
      "ExpectedPause()": [
        {
          "details": "The operation failed because the contract is not paused."
        }
      ],
      "InsufficientReservedInterest(uint256,uint256)": [
        {
          "details": "Aggregate reserved interest is smaller than a required reduction."
        }
      ],
      "InvalidAddress()": [
        {
          "details": "A required contract address is zero."
        }
      ],
      "InvalidAmount()": [
        {
          "details": "A deposit principal amount must be greater than zero."
        }
      ],
      "InvalidAprBps(uint256)": [
        {
          "details": "The supplied APR is outside the supported range."
        }
      ],
      "InvalidDepositId(uint256)": [
        {
          "details": "The supplied deposit identifier does not exist."
        }
      ],
      "InvalidDepositRange(uint256,uint256)": [
        {
          "details": "Both deposit limits are nonzero and the minimum exceeds the maximum."
        }
      ],
      "InvalidPenaltyBps(uint256)": [
        {
          "details": "The supplied early-withdrawal penalty exceeds the supported range."
        }
      ],
      "InvalidPlanId(uint256)": [
        {
          "details": "The supplied plan identifier does not refer to an existing plan."
        }
      ],
      "InvalidTenorDays(uint256)": [
        {
          "details": "The supplied tenor is outside the supported range."
        }
      ],
      "ManualRenewalWindowClosed(uint256,uint256,uint256)": [
        {
          "details": "The manual-renewal grace window has ended."
        }
      ],
      "NoPendingInterest(uint256)": [
        {
          "details": "The supplied deposit has no outstanding deferred interest."
        }
      ],
      "NotDepositOwner(uint256,address,address)": [
        {
          "details": "The caller is not the current owner of the deposit certificate."
        }
      ],
      "NotInterestClaimant(uint256,address,address)": [
        {
          "details": "The caller is not the claimant snapshotted at maturity settlement."
        }
      ],
      "OwnableInvalidOwner(address)": [
        {
          "details": "The owner is not a valid owner account. (eg. `address(0)`)"
        }
      ],
      "OwnableUnauthorizedAccount(address)": [
        {
          "details": "The caller account is not authorized to perform an operation."
        }
      ],
      "PlanAlreadyDisabled(uint256)": [
        {
          "details": "The requested plan is already disabled."
        }
      ],
      "PlanAlreadyEnabled(uint256)": [
        {
          "details": "The requested plan is already enabled."
        }
      ],
      "PlanNotEnabled(uint256)": [
        {
          "details": "The selected plan does not currently accept new deposits."
        }
      ],
      "ReentrancyGuardReentrantCall()": [
        {
          "details": "Unauthorized reentrant call."
        }
      ],
      "SafeERC20FailedOperation(address)": [
        {
          "details": "An operation with an ERC-20 token failed."
        }
      ]
    },
    "events": {
      "Approval(address,address,uint256)": {
        "details": "Emitted when `owner` enables `approved` to manage the `tokenId` token."
      },
      "ApprovalForAll(address,address,bool)": {
        "details": "Emitted when `owner` enables or disables (`approved`) `operator` to manage all of its assets."
      },
      "Paused(address)": {
        "details": "Emitted when the pause is triggered by `account`."
      },
      "Transfer(address,address,uint256)": {
        "details": "Emitted when `tokenId` token is transferred from `from` to `to`."
      },
      "Unpaused(address)": {
        "details": "Emitted when the pause is lifted by `account`."
      }
    },
    "kind": "dev",
    "methods": {
      "acceptOwnership()": {
        "details": "The new owner accepts the ownership transfer."
      },
      "approve(address,uint256)": {
        "details": "See {IERC721-approve}."
      },
      "autoRenew(uint256)": {
        "details": "The new term starts at the execution timestamp and preserves the      old plan identifier, tenor, APR, and penalty snapshots. Exactly one      new term is created per successful call. Positive old-term interest      is funded by VaultManager directly into SavingCore before the new      ERC721 certificate is safely minted to the current old-NFT owner.      The caller receives no ownership solely for triggering this function.",
        "params": {
          "depositId": "Existing active deposit identifier."
        },
        "returns": {
          "newDepositId": "Identifier of the newly created active deposit."
        }
      },
      "balanceOf(address)": {
        "details": "See {IERC721-balanceOf}."
      },
      "claimPendingInterest(uint256)": {
        "details": "Only the claimant snapshotted at maturity settlement may call.      Pending state is cleared before the external vault interaction.      A failed payout reverts and restores the outstanding amount.",
        "params": {
          "depositId": "Settled deposit with outstanding deferred interest."
        }
      },
      "constructor": {
        "params": {
          "initialOwner_": "Initial SafeBank administrator.",
          "token_": "MockUSDC-compatible ERC20 contract address.",
          "vaultManager_": "Deployed VaultManager contract address."
        }
      },
      "createPlan(uint256,uint256,uint256,uint256,uint256,bool)": {
        "params": {
          "aprBps": "Annual percentage rate in basis points.",
          "earlyWithdrawPenaltyBps": "Early-withdrawal penalty in basis points.",
          "enabled": "Whether the plan initially accepts new deposits.",
          "maxDeposit": "Maximum principal, or zero for no upper plan limit.",
          "minDeposit": "Minimum principal, or zero for no lower plan limit.",
          "tenorDays": "Length of one term in days."
        },
        "returns": {
          "planId": "Newly assigned plan identifier."
        }
      },
      "disablePlan(uint256)": {
        "params": {
          "planId": "Existing saving-plan identifier."
        }
      },
      "earlyWithdraw(uint256)": {
        "details": "No interest is paid. The snapshotted penalty is transferred from      principal to the current VaultManager fee receiver, and the      remaining principal is returned to the direct current NFT owner.      The NFT is retained as a historical certificate.",
        "params": {
          "depositId": "Existing active deposit identifier."
        }
      },
      "enablePlan(uint256)": {
        "params": {
          "planId": "Existing saving-plan identifier."
        }
      },
      "getApproved(uint256)": {
        "details": "See {IERC721-getApproved}."
      },
      "getDeposit(uint256)": {
        "params": {
          "depositId": "Existing deposit identifier."
        }
      },
      "getPlan(uint256)": {
        "params": {
          "planId": "Existing saving-plan identifier."
        }
      },
      "isApprovedForAll(address,address)": {
        "details": "See {IERC721-isApprovedForAll}."
      },
      "manualRenew(uint256,uint256)": {
        "details": "The old principal remains in SavingCore. Positive old-term interest      is funded by VaultManager directly into SavingCore before the new      ERC721 certificate is safely minted. The old certificate is retained      as historical evidence.",
        "params": {
          "depositId": "Existing active deposit identifier.",
          "newPlanId": "Enabled saving plan selected for the new term."
        },
        "returns": {
          "newDepositId": "Identifier of the newly created active deposit."
        }
      },
      "name()": {
        "details": "See {IERC721Metadata-name}."
      },
      "openDeposit(uint256,uint256)": {
        "params": {
          "amount": "Principal transferred from the caller into SavingCore.",
          "planId": "Enabled saving-plan identifier."
        },
        "returns": {
          "depositId": "Newly assigned deposit and certificate identifier."
        }
      },
      "owner()": {
        "details": "Returns the address of the current owner."
      },
      "ownerOf(uint256)": {
        "details": "See {IERC721-ownerOf}."
      },
      "paused()": {
        "details": "Returns true if the contract is paused, and false otherwise."
      },
      "pendingOwner()": {
        "details": "Returns the address of the pending owner."
      },
      "renounceOwnership()": {
        "details": "Leaves the contract without owner. It will not be possible to call `onlyOwner` functions. Can only be called by the current owner. NOTE: Renouncing ownership will leave the contract without an owner, thereby disabling any functionality that is only available to the owner."
      },
      "safeTransferFrom(address,address,uint256)": {
        "details": "See {IERC721-safeTransferFrom}."
      },
      "safeTransferFrom(address,address,uint256,bytes)": {
        "details": "See {IERC721-safeTransferFrom}."
      },
      "setApprovalForAll(address,bool)": {
        "details": "See {IERC721-setApprovalForAll}."
      },
      "supportsInterface(bytes4)": {
        "details": "See {IERC165-supportsInterface}."
      },
      "symbol()": {
        "details": "See {IERC721Metadata-symbol}."
      },
      "tokenURI(uint256)": {
        "details": "See {IERC721Metadata-tokenURI}."
      },
      "transferFrom(address,address,uint256)": {
        "details": "See {IERC721-transferFrom}."
      },
      "transferOwnership(address)": {
        "details": "Starts the ownership transfer of the contract to a new account. Replaces the pending transfer if there is one. Can only be called by the current owner. Setting `newOwner` to the zero address is allowed; this can be used to cancel an initiated ownership transfer."
      },
      "updatePlan(uint256,uint256)": {
        "details": "Existing deposit snapshots will not depend on this mutable value.",
        "params": {
          "newAprBps": "New annual percentage rate in basis points.",
          "planId": "Existing saving-plan identifier."
        }
      },
      "withdrawAtMaturity(uint256)": {
        "details": "Principal is paid from SavingCore before positive interest is      requested from the authorized VaultManager. If the vault lacks      sufficient liquidity, the full interest amount is deferred for      the current NFT owner to claim later. Other vault failures revert      the complete settlement. The NFT is retained as a historical      certificate.",
        "params": {
          "depositId": "Existing active deposit identifier."
        }
      }
    },
    "stateVariables": {
      "depositCount": {
        "details": "Valid deposit identifiers range from 1 through depositCount."
      },
      "planCount": {
        "details": "Valid plan identifiers range from 1 through planCount."
      },
      "totalReservedInterest": {
        "details": "This value may exceed VaultManager's current token balance."
      }
    },
    "title": "SavingCore",
    "version": 1
  },
  "userdoc": {
    "events": {
      "DepositOpened(uint256,address,uint256,uint256,uint256,uint256)": {
        "notice": "Emitted after principal custody and certificate issuance succeed."
      },
      "InterestDeferred(uint256,address,uint256)": {
        "notice": "Emitted when maturity interest is deferred for later payment."
      },
      "InterestReserved(uint256,uint256,uint256)": {
        "notice": "Emitted when a new deposit interest liability is recorded."
      },
      "PendingInterestClaimed(uint256,address,uint256)": {
        "notice": "Emitted after a claimant receives all deferred interest."
      },
      "PlanCreated(uint256,uint256,uint256)": {
        "notice": "Emitted when a new saving plan is created."
      },
      "PlanDisabled(uint256)": {
        "notice": "Emitted when a saving plan is disabled."
      },
      "PlanEnabled(uint256)": {
        "notice": "Emitted when a saving plan is enabled."
      },
      "PlanUpdated(uint256,uint256)": {
        "notice": "Emitted when a saving plan's APR is updated."
      },
      "Renewed(uint256,uint256,uint256,uint256)": {
        "notice": "Emitted after an old deposit is renewed into a new one."
      },
      "ReservedInterestConsumed(uint256,uint256,uint256)": {
        "notice": "Emitted when a reserved liability is paid or compounded."
      },
      "ReservedInterestReleased(uint256,uint256,uint256)": {
        "notice": "Emitted when interest is no longer owed after early withdrawal."
      },
      "Withdrawn(uint256,address,uint256,uint256,bool)": {
        "notice": "Emitted after a deposit is settled through withdrawal."
      }
    },
    "kind": "user",
    "methods": {
      "BPS_DENOMINATOR()": {
        "notice": "Basis-point denominator representing 100%."
      },
      "DEFAULT_APR_BPS()": {
        "notice": "Personal-variant default annual percentage rate in basis points."
      },
      "DEFAULT_EARLY_WITHDRAW_PENALTY_BPS()": {
        "notice": "Personal-variant default early-withdrawal penalty in basis points."
      },
      "DEFAULT_TENOR_DAYS()": {
        "notice": "Personal-variant default tenor in days."
      },
      "GRACE_PERIOD()": {
        "notice": "Number of seconds in the fixed personal-variant grace period."
      },
      "MAX_APR_BPS()": {
        "notice": "Maximum supported annual percentage rate."
      },
      "MAX_PENALTY_BPS()": {
        "notice": "Maximum supported early-withdrawal penalty."
      },
      "MAX_TENOR_DAYS()": {
        "notice": "Maximum supported saving-plan tenor."
      },
      "MIN_APR_BPS()": {
        "notice": "Minimum supported annual percentage rate."
      },
      "MIN_TENOR_DAYS()": {
        "notice": "Minimum supported saving-plan tenor."
      },
      "autoRenew(uint256)": {
        "notice": "Permissionlessly renews an active deposit after its grace period."
      },
      "claimPendingInterest(uint256)": {
        "notice": "Claims all deferred maturity interest for a settled deposit."
      },
      "createPlan(uint256,uint256,uint256,uint256,uint256,bool)": {
        "notice": "Creates a new saving plan."
      },
      "depositCount()": {
        "notice": "Number of deposits created."
      },
      "disablePlan(uint256)": {
        "notice": "Disables an existing plan for future deposit operations."
      },
      "earlyWithdraw(uint256)": {
        "notice": "Settles an active deposit before its maturity timestamp."
      },
      "enablePlan(uint256)": {
        "notice": "Enables an existing plan for future deposit operations."
      },
      "getDeposit(uint256)": {
        "notice": "Returns an existing deposit and its snapshotted terms."
      },
      "getPlan(uint256)": {
        "notice": "Returns an existing saving plan."
      },
      "interestClaimant(uint256)": {
        "notice": "Claimant snapshotted when a deposit creates deferred interest."
      },
      "manualRenew(uint256,uint256)": {
        "notice": "Manually renews an active matured deposit during its grace period."
      },
      "openDeposit(uint256,uint256)": {
        "notice": "Opens a fixed-term deposit and mints its ERC721 certificate."
      },
      "pause()": {
        "notice": "Pauses future pause-protected SavingCore financial entry points."
      },
      "pendingInterest(uint256)": {
        "notice": "Outstanding deferred maturity interest for each settled deposit."
      },
      "planCount()": {
        "notice": "Number of saving plans created."
      },
      "token()": {
        "notice": "MockUSDC-compatible token used by SafeBank."
      },
      "totalReservedInterest()": {
        "notice": "Aggregate expected and pending interest liabilities."
      },
      "unpause()": {
        "notice": "Unpauses SavingCore."
      },
      "updatePlan(uint256,uint256)": {
        "notice": "Updates the APR used by future deposits selecting a plan."
      },
      "vaultManager()": {
        "notice": "VaultManager that holds bank-funded interest liquidity."
      },
      "withdrawAtMaturity(uint256)": {
        "notice": "Settles an active deposit at or after its maturity timestamp."
      }
    },
    "notice": "Central SafeBank contract for saving-plan and deposit management.",
    "version": 1
  },
  "storageLayout": {
    "storage": [
      {
        "astId": 1576,
        "contract": "contracts/SavingCore.sol:SavingCore",
        "label": "_name",
        "offset": 0,
        "slot": "0",
        "type": "t_string_storage"
      },
      {
        "astId": 1578,
        "contract": "contracts/SavingCore.sol:SavingCore",
        "label": "_symbol",
        "offset": 0,
        "slot": "1",
        "type": "t_string_storage"
      },
      {
        "astId": 1582,
        "contract": "contracts/SavingCore.sol:SavingCore",
        "label": "_owners",
        "offset": 0,
        "slot": "2",
        "type": "t_mapping(t_uint256,t_address)"
      },
      {
        "astId": 1586,
        "contract": "contracts/SavingCore.sol:SavingCore",
        "label": "_balances",
        "offset": 0,
        "slot": "3",
        "type": "t_mapping(t_address,t_uint256)"
      },
      {
        "astId": 1590,
        "contract": "contracts/SavingCore.sol:SavingCore",
        "label": "_tokenApprovals",
        "offset": 0,
        "slot": "4",
        "type": "t_mapping(t_uint256,t_address)"
      },
      {
        "astId": 1596,
        "contract": "contracts/SavingCore.sol:SavingCore",
        "label": "_operatorApprovals",
        "offset": 0,
        "slot": "5",
        "type": "t_mapping(t_address,t_mapping(t_address,t_bool))"
      },
      {
        "astId": 8,
        "contract": "contracts/SavingCore.sol:SavingCore",
        "label": "_owner",
        "offset": 0,
        "slot": "6",
        "type": "t_address"
      },
      {
        "astId": 156,
        "contract": "contracts/SavingCore.sol:SavingCore",
        "label": "_pendingOwner",
        "offset": 0,
        "slot": "7",
        "type": "t_address"
      },
      {
        "astId": 2831,
        "contract": "contracts/SavingCore.sol:SavingCore",
        "label": "_paused",
        "offset": 20,
        "slot": "7",
        "type": "t_bool"
      },
      {
        "astId": 2941,
        "contract": "contracts/SavingCore.sol:SavingCore",
        "label": "_status",
        "offset": 0,
        "slot": "8",
        "type": "t_uint256"
      },
      {
        "astId": 8387,
        "contract": "contracts/SavingCore.sol:SavingCore",
        "label": "planCount",
        "offset": 0,
        "slot": "9",
        "type": "t_uint256"
      },
      {
        "astId": 8390,
        "contract": "contracts/SavingCore.sol:SavingCore",
        "label": "depositCount",
        "offset": 0,
        "slot": "10",
        "type": "t_uint256"
      },
      {
        "astId": 8395,
        "contract": "contracts/SavingCore.sol:SavingCore",
        "label": "_plans",
        "offset": 0,
        "slot": "11",
        "type": "t_mapping(t_uint256,t_struct(Plan)8095_storage)"
      },
      {
        "astId": 8400,
        "contract": "contracts/SavingCore.sol:SavingCore",
        "label": "_deposits",
        "offset": 0,
        "slot": "12",
        "type": "t_mapping(t_uint256,t_struct(Deposit)8120_storage)"
      },
      {
        "astId": 8405,
        "contract": "contracts/SavingCore.sol:SavingCore",
        "label": "pendingInterest",
        "offset": 0,
        "slot": "13",
        "type": "t_mapping(t_uint256,t_uint256)"
      },
      {
        "astId": 8410,
        "contract": "contracts/SavingCore.sol:SavingCore",
        "label": "interestClaimant",
        "offset": 0,
        "slot": "14",
        "type": "t_mapping(t_uint256,t_address)"
      },
      {
        "astId": 8413,
        "contract": "contracts/SavingCore.sol:SavingCore",
        "label": "totalReservedInterest",
        "offset": 0,
        "slot": "15",
        "type": "t_uint256"
      }
    ],
    "types": {
      "t_address": {
        "encoding": "inplace",
        "label": "address",
        "numberOfBytes": "20"
      },
      "t_bool": {
        "encoding": "inplace",
        "label": "bool",
        "numberOfBytes": "1"
      },
      "t_enum(DepositStatus)8101": {
        "encoding": "inplace",
        "label": "enum SavingCore.DepositStatus",
        "numberOfBytes": "1"
      },
      "t_mapping(t_address,t_bool)": {
        "encoding": "mapping",
        "key": "t_address",
        "label": "mapping(address => bool)",
        "numberOfBytes": "32",
        "value": "t_bool"
      },
      "t_mapping(t_address,t_mapping(t_address,t_bool))": {
        "encoding": "mapping",
        "key": "t_address",
        "label": "mapping(address => mapping(address => bool))",
        "numberOfBytes": "32",
        "value": "t_mapping(t_address,t_bool)"
      },
      "t_mapping(t_address,t_uint256)": {
        "encoding": "mapping",
        "key": "t_address",
        "label": "mapping(address => uint256)",
        "numberOfBytes": "32",
        "value": "t_uint256"
      },
      "t_mapping(t_uint256,t_address)": {
        "encoding": "mapping",
        "key": "t_uint256",
        "label": "mapping(uint256 => address)",
        "numberOfBytes": "32",
        "value": "t_address"
      },
      "t_mapping(t_uint256,t_struct(Deposit)8120_storage)": {
        "encoding": "mapping",
        "key": "t_uint256",
        "label": "mapping(uint256 => struct SavingCore.Deposit)",
        "numberOfBytes": "32",
        "value": "t_struct(Deposit)8120_storage"
      },
      "t_mapping(t_uint256,t_struct(Plan)8095_storage)": {
        "encoding": "mapping",
        "key": "t_uint256",
        "label": "mapping(uint256 => struct SavingCore.Plan)",
        "numberOfBytes": "32",
        "value": "t_struct(Plan)8095_storage"
      },
      "t_mapping(t_uint256,t_uint256)": {
        "encoding": "mapping",
        "key": "t_uint256",
        "label": "mapping(uint256 => uint256)",
        "numberOfBytes": "32",
        "value": "t_uint256"
      },
      "t_string_storage": {
        "encoding": "bytes",
        "label": "string",
        "numberOfBytes": "32"
      },
      "t_struct(Deposit)8120_storage": {
        "encoding": "inplace",
        "label": "struct SavingCore.Deposit",
        "members": [
          {
            "astId": 8104,
            "contract": "contracts/SavingCore.sol:SavingCore",
            "label": "planId",
            "offset": 0,
            "slot": "0",
            "type": "t_uint256"
          },
          {
            "astId": 8106,
            "contract": "contracts/SavingCore.sol:SavingCore",
            "label": "principal",
            "offset": 0,
            "slot": "1",
            "type": "t_uint256"
          },
          {
            "astId": 8108,
            "contract": "contracts/SavingCore.sol:SavingCore",
            "label": "startedAt",
            "offset": 0,
            "slot": "2",
            "type": "t_uint256"
          },
          {
            "astId": 8110,
            "contract": "contracts/SavingCore.sol:SavingCore",
            "label": "maturityAt",
            "offset": 0,
            "slot": "3",
            "type": "t_uint256"
          },
          {
            "astId": 8112,
            "contract": "contracts/SavingCore.sol:SavingCore",
            "label": "tenorDays",
            "offset": 0,
            "slot": "4",
            "type": "t_uint256"
          },
          {
            "astId": 8114,
            "contract": "contracts/SavingCore.sol:SavingCore",
            "label": "aprBpsAtOpen",
            "offset": 0,
            "slot": "5",
            "type": "t_uint256"
          },
          {
            "astId": 8116,
            "contract": "contracts/SavingCore.sol:SavingCore",
            "label": "penaltyBpsAtOpen",
            "offset": 0,
            "slot": "6",
            "type": "t_uint256"
          },
          {
            "astId": 8119,
            "contract": "contracts/SavingCore.sol:SavingCore",
            "label": "status",
            "offset": 0,
            "slot": "7",
            "type": "t_enum(DepositStatus)8101"
          }
        ],
        "numberOfBytes": "256"
      },
      "t_struct(Plan)8095_storage": {
        "encoding": "inplace",
        "label": "struct SavingCore.Plan",
        "members": [
          {
            "astId": 8084,
            "contract": "contracts/SavingCore.sol:SavingCore",
            "label": "tenorDays",
            "offset": 0,
            "slot": "0",
            "type": "t_uint256"
          },
          {
            "astId": 8086,
            "contract": "contracts/SavingCore.sol:SavingCore",
            "label": "aprBps",
            "offset": 0,
            "slot": "1",
            "type": "t_uint256"
          },
          {
            "astId": 8088,
            "contract": "contracts/SavingCore.sol:SavingCore",
            "label": "minDeposit",
            "offset": 0,
            "slot": "2",
            "type": "t_uint256"
          },
          {
            "astId": 8090,
            "contract": "contracts/SavingCore.sol:SavingCore",
            "label": "maxDeposit",
            "offset": 0,
            "slot": "3",
            "type": "t_uint256"
          },
          {
            "astId": 8092,
            "contract": "contracts/SavingCore.sol:SavingCore",
            "label": "earlyWithdrawPenaltyBps",
            "offset": 0,
            "slot": "4",
            "type": "t_uint256"
          },
          {
            "astId": 8094,
            "contract": "contracts/SavingCore.sol:SavingCore",
            "label": "enabled",
            "offset": 0,
            "slot": "5",
            "type": "t_bool"
          }
        ],
        "numberOfBytes": "192"
      },
      "t_uint256": {
        "encoding": "inplace",
        "label": "uint256",
        "numberOfBytes": "32"
      }
    }
  }
}