{
  "address": "0xA79F660FaB4Ebae6Ac4298034Cb3FD6d28e5D2f7",
  "abi": [
    {
      "inputs": [
        {
          "internalType": "address",
          "name": "token_",
          "type": "address"
        },
        {
          "internalType": "address",
          "name": "initialOwner_",
          "type": "address"
        },
        {
          "internalType": "address",
          "name": "initialFeeReceiver_",
          "type": "address"
        }
      ],
      "stateMutability": "nonpayable",
      "type": "constructor"
    },
    {
      "inputs": [
        {
          "internalType": "address",
          "name": "account",
          "type": "address"
        }
      ],
      "name": "AddressIsNotContract",
      "type": "error"
    },
    {
      "inputs": [],
      "name": "EnforcedPause",
      "type": "error"
    },
    {
      "inputs": [],
      "name": "ExpectedPause",
      "type": "error"
    },
    {
      "inputs": [
        {
          "internalType": "uint256",
          "name": "available",
          "type": "uint256"
        },
        {
          "internalType": "uint256",
          "name": "required",
          "type": "uint256"
        }
      ],
      "name": "InsufficientVaultBalance",
      "type": "error"
    },
    {
      "inputs": [],
      "name": "InvalidAddress",
      "type": "error"
    },
    {
      "inputs": [],
      "name": "InvalidAmount",
      "type": "error"
    },
    {
      "inputs": [
        {
          "internalType": "address",
          "name": "owner",
          "type": "address"
        }
      ],
      "name": "OwnableInvalidOwner",
      "type": "error"
    },
    {
      "inputs": [
        {
          "internalType": "address",
          "name": "account",
          "type": "address"
        }
      ],
      "name": "OwnableUnauthorizedAccount",
      "type": "error"
    },
    {
      "inputs": [],
      "name": "ReentrancyGuardReentrantCall",
      "type": "error"
    },
    {
      "inputs": [
        {
          "internalType": "address",
          "name": "token",
          "type": "address"
        }
      ],
      "name": "SafeERC20FailedOperation",
      "type": "error"
    },
    {
      "inputs": [
        {
          "internalType": "address",
          "name": "currentSavingCore",
          "type": "address"
        }
      ],
      "name": "SavingCoreAlreadyAuthorized",
      "type": "error"
    },
    {
      "inputs": [
        {
          "internalType": "address",
          "name": "caller",
          "type": "address"
        }
      ],
      "name": "UnauthorizedSavingCore",
      "type": "error"
    },
    {
      "anonymous": false,
      "inputs": [
        {
          "indexed": true,
          "internalType": "address",
          "name": "previousFeeReceiver",
          "type": "address"
        },
        {
          "indexed": true,
          "internalType": "address",
          "name": "newFeeReceiver",
          "type": "address"
        }
      ],
      "name": "FeeReceiverUpdated",
      "type": "event"
    },
    {
      "anonymous": false,
      "inputs": [
        {
          "indexed": true,
          "internalType": "address",
          "name": "savingCore",
          "type": "address"
        },
        {
          "indexed": true,
          "internalType": "address",
          "name": "recipient",
          "type": "address"
        },
        {
          "indexed": false,
          "internalType": "uint256",
          "name": "amount",
          "type": "uint256"
        }
      ],
      "name": "InterestPaid",
      "type": "event"
    },
    {
      "anonymous": false,
      "inputs": [
        {
          "indexed": true,
          "internalType": "address",
          "name": "previousOwner",
          "type": "address"
        },
        {
          "indexed": true,
          "internalType": "address",
          "name": "newOwner",
          "type": "address"
        }
      ],
      "name": "OwnershipTransferStarted",
      "type": "event"
    },
    {
      "anonymous": false,
      "inputs": [
        {
          "indexed": true,
          "internalType": "address",
          "name": "previousOwner",
          "type": "address"
        },
        {
          "indexed": true,
          "internalType": "address",
          "name": "newOwner",
          "type": "address"
        }
      ],
      "name": "OwnershipTransferred",
      "type": "event"
    },
    {
      "anonymous": false,
      "inputs": [
        {
          "indexed": false,
          "internalType": "address",
          "name": "account",
          "type": "address"
        }
      ],
      "name": "Paused",
      "type": "event"
    },
    {
      "anonymous": false,
      "inputs": [
        {
          "indexed": true,
          "internalType": "address",
          "name": "savingCore",
          "type": "address"
        }
      ],
      "name": "SavingCoreAuthorized",
      "type": "event"
    },
    {
      "anonymous": false,
      "inputs": [
        {
          "indexed": false,
          "internalType": "address",
          "name": "account",
          "type": "address"
        }
      ],
      "name": "Unpaused",
      "type": "event"
    },
    {
      "anonymous": false,
      "inputs": [
        {
          "indexed": true,
          "internalType": "address",
          "name": "funder",
          "type": "address"
        },
        {
          "indexed": false,
          "internalType": "uint256",
          "name": "amount",
          "type": "uint256"
        }
      ],
      "name": "VaultFunded",
      "type": "event"
    },
    {
      "anonymous": false,
      "inputs": [
        {
          "indexed": true,
          "internalType": "address",
          "name": "recipient",
          "type": "address"
        },
        {
          "indexed": false,
          "internalType": "uint256",
          "name": "amount",
          "type": "uint256"
        }
      ],
      "name": "VaultWithdrawn",
      "type": "event"
    },
    {
      "inputs": [],
      "name": "acceptOwnership",
      "outputs": [],
      "stateMutability": "nonpayable",
      "type": "function"
    },
    {
      "inputs": [
        {
          "internalType": "address",
          "name": "savingCore_",
          "type": "address"
        }
      ],
      "name": "authorizeSavingCore",
      "outputs": [],
      "stateMutability": "nonpayable",
      "type": "function"
    },
    {
      "inputs": [],
      "name": "availableLiquidity",
      "outputs": [
        {
          "internalType": "uint256",
          "name": "",
          "type": "uint256"
        }
      ],
      "stateMutability": "view",
      "type": "function"
    },
    {
      "inputs": [],
      "name": "feeReceiver",
      "outputs": [
        {
          "internalType": "address",
          "name": "",
          "type": "address"
        }
      ],
      "stateMutability": "view",
      "type": "function"
    },
    {
      "inputs": [
        {
          "internalType": "uint256",
          "name": "amount",
          "type": "uint256"
        }
      ],
      "name": "fundVault",
      "outputs": [],
      "stateMutability": "nonpayable",
      "type": "function"
    },
    {
      "inputs": [],
      "name": "fundingShortfall",
      "outputs": [
        {
          "internalType": "uint256",
          "name": "",
          "type": "uint256"
        }
      ],
      "stateMutability": "view",
      "type": "function"
    },
    {
      "inputs": [],
      "name": "owner",
      "outputs": [
        {
          "internalType": "address",
          "name": "",
          "type": "address"
        }
      ],
      "stateMutability": "view",
      "type": "function"
    },
    {
      "inputs": [],
      "name": "pause",
      "outputs": [],
      "stateMutability": "nonpayable",
      "type": "function"
    },
    {
      "inputs": [],
      "name": "paused",
      "outputs": [
        {
          "internalType": "bool",
          "name": "",
          "type": "bool"
        }
      ],
      "stateMutability": "view",
      "type": "function"
    },
    {
      "inputs": [
        {
          "internalType": "address",
          "name": "recipient",
          "type": "address"
        },
        {
          "internalType": "uint256",
          "name": "amount",
          "type": "uint256"
        }
      ],
      "name": "payInterest",
      "outputs": [],
      "stateMutability": "nonpayable",
      "type": "function"
    },
    {
      "inputs": [],
      "name": "pendingOwner",
      "outputs": [
        {
          "internalType": "address",
          "name": "",
          "type": "address"
        }
      ],
      "stateMutability": "view",
      "type": "function"
    },
    {
      "inputs": [],
      "name": "renounceOwnership",
      "outputs": [],
      "stateMutability": "nonpayable",
      "type": "function"
    },
    {
      "inputs": [],
      "name": "savingCore",
      "outputs": [
        {
          "internalType": "address",
          "name": "",
          "type": "address"
        }
      ],
      "stateMutability": "view",
      "type": "function"
    },
    {
      "inputs": [
        {
          "internalType": "address",
          "name": "newFeeReceiver",
          "type": "address"
        }
      ],
      "name": "setFeeReceiver",
      "outputs": [],
      "stateMutability": "nonpayable",
      "type": "function"
    },
    {
      "inputs": [],
      "name": "token",
      "outputs": [
        {
          "internalType": "contract IERC20",
          "name": "",
          "type": "address"
        }
      ],
      "stateMutability": "view",
      "type": "function"
    },
    {
      "inputs": [],
      "name": "totalReservedInterest",
      "outputs": [
        {
          "internalType": "uint256",
          "name": "",
          "type": "uint256"
        }
      ],
      "stateMutability": "view",
      "type": "function"
    },
    {
      "inputs": [
        {
          "internalType": "address",
          "name": "newOwner",
          "type": "address"
        }
      ],
      "name": "transferOwnership",
      "outputs": [],
      "stateMutability": "nonpayable",
      "type": "function"
    },
    {
      "inputs": [],
      "name": "unpause",
      "outputs": [],
      "stateMutability": "nonpayable",
      "type": "function"
    },
    {
      "inputs": [],
      "name": "vaultBalance",
      "outputs": [
        {
          "internalType": "uint256",
          "name": "",
          "type": "uint256"
        }
      ],
      "stateMutability": "view",
      "type": "function"
    },
    {
      "inputs": [
        {
          "internalType": "uint256",
          "name": "amount",
          "type": "uint256"
        }
      ],
      "name": "withdrawVault",
      "outputs": [],
      "stateMutability": "nonpayable",
      "type": "function"
    }
  ],
  "transactionHash": "0x815109fdaa03422d1b8692e80d1d9f8ec3ba25b3d21a5488e90b7347f66a7dbf",
  "args": [
    "0xcf779EC5D80573D3254054a17c5B4f0117491662",
    "0xA998526b0A5F23680f50fa3677f5c6576Dba89d9",
    "0xA998526b0A5F23680f50fa3677f5c6576Dba89d9"
  ],
  "numDeployments": 1,
  "solcInputHash": "20cbb21c568cb985bde5e26ceea9902d",
  "bytecode": "0x60a03461017857601f610f9738819003918201601f19168301916001600160401b0383118484101761017d578084926060946040528339810103126101785761004781610193565b90610060604061005960208401610193565b9201610193565b6001600160a01b0390911691821561016257600180546001600160a01b0319908116909155600080549182168517815560405194916001600160a01b0316907f8be0079c531659141344cd1fd0a4f28419497f9722a3daafe3b4186f6b6457e09080a360016002556001600160a01b031680158015610151575b61014057608052600380546001600160a01b0319166001600160a01b0392909216919091179055610def90816101a8823960805181818161011b015281816102f00152818161040301528181610786015281816109b701528181610b430152610bed0152f35b63e6c4247b60e01b60005260046000fd5b506001600160a01b038216156100da565b631e4fbdf760e01b600052600060045260246000fd5b600080fd5b634e487b7160e01b600052604160045260246000fd5b51906001600160a01b03821682036101785756fe608080604052600436101561001357600080fd5b60003560e01c9081630bf6cc0814610986575080630f975719146108a85780631b7623be1461072f5780631f0d13d7146107145780633f4ba83a1461068c5780635c975abb14610666578063715018a6146105fd57806374375359146105e257806379ba50971461053c5780638456cb59146104cb5780638da5cb5b146104a45780638f18c8871461047d578063a309dc641461045a578063abe73ef51461038a578063b3f0067414610363578063b40afc1c14610277578063e30c397814610250578063efdcd974146101b3578063f2fde38b146101445763fc0c546a146100fb57600080fd5b3461013f57600036600319011261013f5760206040516001600160a01b037f0000000000000000000000000000000000000000000000000000000000000000168152f35b600080fd5b3461013f57602036600319011261013f576001600160a01b03610165610a25565b61016d610c6b565b16806001600160a01b031960015416176001556001600160a01b03600054167f38d16b8cac22d99fc7c124b9cd0de2d3fa1faef420bfe791d8c362d765e22700600080a3005b3461013f57602036600319011261013f576001600160a01b036101d4610a25565b6101dc610c6b565b168015610226576001600160a01b03600354826001600160a01b0319821617600355167fa92ff4390fe6943f0b30e8fe715dde86f85ab79b2b2c640a10fc094cc4036cc8600080a3005b7fe6c4247b0000000000000000000000000000000000000000000000000000000060005260046000fd5b3461013f57600036600319011261013f5760206001600160a01b0360015416604051908152f35b3461013f57602036600319011261013f57600435610293610c6b565b61029b610c7f565b6102a3610cb8565b8015610339576102b1610b20565b81811061032257507f1b5775af7e7537be20684ccf94b9c6f4b180dabad653f5b57a234a9c6a3db40b60206001600160a01b03600054169261031481857f0000000000000000000000000000000000000000000000000000000000000000610cf1565b604051908152a26001600255005b63bce5067160e01b60005260045260245260446000fd5b7f2c5211c60000000000000000000000000000000000000000000000000000000060005260046000fd5b3461013f57600036600319011261013f5760206001600160a01b0360035416604051908152f35b3461013f57602036600319011261013f576004356103a6610c6b565b6103ae610cb8565b8015610339576104276040517f23b872dd00000000000000000000000000000000000000000000000000000000602082015233602482015230604482015282606482015260648152610401608482610a3b565b7f0000000000000000000000000000000000000000000000000000000000000000610d48565b6040519081527fba24bd9b798cca64d1031eda1ced9398802343e44e07779bb510d7a21ddddef160203392a26001600255005b3461013f57600036600319011261013f576020610475610bca565b604051908152f35b3461013f57600036600319011261013f5760206001600160a01b0360045416604051908152f35b3461013f57600036600319011261013f5760206001600160a01b0360005416604051908152f35b3461013f57600036600319011261013f576104e4610c6b565b6104ec610c7f565b7401000000000000000000000000000000000000000060ff60a01b1960015416176001557f62e78cea01bee320cd4e420270b5ea74000d11b0c9f74754ebdbfc544b05a2586020604051338152a1005b3461013f57600036600319011261013f57336001600160a01b0360015416036105b4576001600160a01b031960015416600155600054336001600160a01b03198216176000556001600160a01b033391167f8be0079c531659141344cd1fd0a4f28419497f9722a3daafe3b4186f6b6457e0600080a3005b7f118cdaa7000000000000000000000000000000000000000000000000000000006000523360045260246000fd5b3461013f57600036600319011261013f576020610475610b20565b3461013f57600036600319011261013f57610616610c6b565b6001600160a01b03196001541660015560006001600160a01b0381546001600160a01b031981168355167f8be0079c531659141344cd1fd0a4f28419497f9722a3daafe3b4186f6b6457e08280a3005b3461013f57600036600319011261013f57602060ff60015460a01c166040519015158152f35b3461013f57600036600319011261013f576106a5610c6b565b60015460ff8160a01c16156106ea5760ff60a01b19166001557f5db9ee0a495bf2e6ff9c91a7834c1ba4fdd244a5e8aa4e537bd38aeae4b073aa6020604051338152a1005b7f8dfc202b0000000000000000000000000000000000000000000000000000000060005260046000fd5b3461013f57600036600319011261013f576020610475610a73565b3461013f57604036600319011261013f57610748610a25565b6024356001600160a01b0360045416330361087a57610765610c7f565b61076d610cb8565b6001600160a01b038216918215610226578115610339577f00000000000000000000000000000000000000000000000000000000000000006040516370a0823160e01b81523060048201526020816024816001600160a01b0386165afa90811561086e57600091610839575b5083811061082057506107ed918391610cf1565b6040519081527ff75e0f5f6602ca4c59226d587ca078ea5a4ac300638072b99386035b776f264460203392a36001600255005b839063bce5067160e01b60005260045260245260446000fd5b906020823d602011610866575b8161085360209383610a3b565b81010312610863575051856107d9565b80fd5b3d9150610846565b6040513d6000823e3d90fd5b7f1a7f7e86000000000000000000000000000000000000000000000000000000006000523360045260246000fd5b3461013f57602036600319011261013f576108c1610a25565b6108c9610c6b565b600454906001600160a01b0382168061095957506001600160a01b0381169182156102265782913b1561092b576001600160a01b031916176004557fb9bdef23629fad6b2b1e91edf32c936e88a00ccbb30c5a7b0a334eced98f26c8600080a2005b507ff08997ea0000000000000000000000000000000000000000000000000000000060005260045260246000fd5b7f7eac57f90000000000000000000000000000000000000000000000000000000060005260045260246000fd5b3461013f57600036600319011261013f576370a0823160e01b81523060048201526020816024816001600160a01b037f0000000000000000000000000000000000000000000000000000000000000000165afa801561086e576000906109f2575b602090604051908152f35b506020813d602011610a1d575b81610a0c60209383610a3b565b8101031261013f57602090516109e7565b3d91506109ff565b600435906001600160a01b038216820361013f57565b90601f8019910116810190811067ffffffffffffffff821117610a5d57604052565b634e487b7160e01b600052604160045260246000fd5b6001600160a01b03600454168015610af7576020600491604051928380927f1f0d13d70000000000000000000000000000000000000000000000000000000082525afa90811561086e57600091610ac8575090565b90506020813d602011610aef575b81610ae360209383610a3b565b8101031261013f575190565b3d9150610ad6565b50600090565b91908203918211610b0a57565b634e487b7160e01b600052601160045260246000fd5b6040516370a0823160e01b81523060048201526020816024816001600160a01b037f0000000000000000000000000000000000000000000000000000000000000000165afa90811561086e57600091610b98575b50610b7d610a73565b80821115610b9157610b8e91610afd565b90565b5050600090565b906020823d602011610bc2575b81610bb260209383610a3b565b8101031261086357505138610b74565b3d9150610ba5565b6040516370a0823160e01b81523060048201526020816024816001600160a01b037f0000000000000000000000000000000000000000000000000000000000000000165afa90811561086e57600091610c39575b50610c27610a73565b9080821115610b9157610b8e91610afd565b906020823d602011610c63575b81610c5360209383610a3b565b8101031261086357505138610c1e565b3d9150610c46565b6001600160a01b036000541633036105b457565b60ff60015460a01c16610c8e57565b7fd93c06650000000000000000000000000000000000000000000000000000000060005260046000fd5b6002805414610cc75760028055565b7f3ee5aeb50000000000000000000000000000000000000000000000000000000060005260046000fd5b610d46926001600160a01b03604051937fa9059cbb000000000000000000000000000000000000000000000000000000006020860152166024840152604483015260448252610d41606483610a3b565b610d48565b565b906000602091828151910182855af11561086e576000513d610db057506001600160a01b0381163b155b610d795750565b6001600160a01b03907f5274afe7000000000000000000000000000000000000000000000000000000006000521660045260246000fd5b60011415610d7256fea2646970667358221220942902032e5ffa0cdaed131ee6cde7fd889706284de0f7eed44542974d2c384364736f6c634300081c0033",
  "devdoc": {
    "details": "- This contract never holds or manages user deposit principal. - Only the one-time authorized SavingCore contract may request interest payouts. - Privileged administration uses OpenZeppelin Ownable2Step. - Bonus C2 reads aggregate interest liabilities from the authorized   SavingCore and protects reserved vault liquidity from owner withdrawal. - The contract is non-upgradeable.",
    "errors": {
      "AddressIsNotContract(address)": [
        {
          "details": "The supplied SavingCore address has no deployed bytecode."
        }
      ],
      "EnforcedPause()": [
        {
          "details": "The operation failed because the contract is paused."
        }
      ],
      "ExpectedPause()": [
        {
          "details": "The operation failed because the contract is not paused."
        }
      ],
      "InsufficientVaultBalance(uint256,uint256)": [
        {
          "details": "The vault has insufficient transferable liquidity."
        }
      ],
      "InvalidAddress()": [
        {
          "details": "A required address was the zero address."
        }
      ],
      "InvalidAmount()": [
        {
          "details": "A token amount must be greater than zero."
        }
      ],
      "OwnableInvalidOwner(address)": [
        {
          "details": "The owner is not a valid owner account. (eg. `address(0)`)"
        }
      ],
      "OwnableUnauthorizedAccount(address)": [
        {
          "details": "The caller account is not authorized to perform an operation."
        }
      ],
      "ReentrancyGuardReentrantCall()": [
        {
          "details": "Unauthorized reentrant call."
        }
      ],
      "SafeERC20FailedOperation(address)": [
        {
          "details": "An operation with an ERC-20 token failed."
        }
      ],
      "SavingCoreAlreadyAuthorized(address)": [
        {
          "details": "SavingCore has already been permanently configured."
        }
      ],
      "UnauthorizedSavingCore(address)": [
        {
          "details": "The caller is not the authorized SavingCore contract."
        }
      ]
    },
    "events": {
      "Paused(address)": {
        "details": "Emitted when the pause is triggered by `account`."
      },
      "Unpaused(address)": {
        "details": "Emitted when the pause is lifted by `account`."
      }
    },
    "kind": "dev",
    "methods": {
      "acceptOwnership()": {
        "details": "The new owner accepts the ownership transfer."
      },
      "authorizeSavingCore(address)": {
        "details": "This operation may succeed only once.",
        "params": {
          "savingCore_": "Deployed SavingCore contract address."
        }
      },
      "availableLiquidity()": {
        "details": "Uses saturating subtraction when liabilities exceed the balance."
      },
      "constructor": {
        "params": {
          "initialFeeReceiver_": "Initial early-withdrawal fee receiver.",
          "initialOwner_": "Initial bank administrator.",
          "token_": "ERC20 token used for vault liquidity."
        }
      },
      "fundVault(uint256)": {
        "details": "Funding remains available while paused so liquidity can be restored.",
        "params": {
          "amount": "Token amount transferred from the owner."
        }
      },
      "owner()": {
        "details": "Returns the address of the current owner."
      },
      "paused()": {
        "details": "Returns true if the contract is paused, and false otherwise."
      },
      "payInterest(address,uint256)": {
        "details": "Only the authorized SavingCore may call this function.",
        "params": {
          "amount": "Interest amount.",
          "recipient": "Address receiving interest."
        }
      },
      "pendingOwner()": {
        "details": "Returns the address of the pending owner."
      },
      "renounceOwnership()": {
        "details": "Leaves the contract without owner. It will not be possible to call `onlyOwner` functions. Can only be called by the current owner. NOTE: Renouncing ownership will leave the contract without an owner, thereby disabling any functionality that is only available to the owner."
      },
      "setFeeReceiver(address)": {
        "params": {
          "newFeeReceiver": "New nonzero fee receiver."
        }
      },
      "totalReservedInterest()": {
        "details": "Returns zero before a SavingCore contract is authorized."
      },
      "transferOwnership(address)": {
        "details": "Starts the ownership transfer of the contract to a new account. Replaces the pending transfer if there is one. Can only be called by the current owner. Setting `newOwner` to the zero address is allowed; this can be used to cancel an initiated ownership transfer."
      },
      "withdrawVault(uint256)": {
        "details": "The withdrawal cannot exceed current available liquidity.",
        "params": {
          "amount": "Token amount withdrawn to the current owner."
        }
      }
    },
    "title": "VaultManager",
    "version": 1
  },
  "userdoc": {
    "events": {
      "FeeReceiverUpdated(address,address)": {
        "notice": "Emitted when the early-withdrawal fee receiver changes."
      },
      "InterestPaid(address,address,uint256)": {
        "notice": "Emitted when SavingCore requests a successful interest payout."
      },
      "SavingCoreAuthorized(address)": {
        "notice": "Emitted when SavingCore is permanently authorized."
      },
      "VaultFunded(address,uint256)": {
        "notice": "Emitted when the owner funds the vault."
      },
      "VaultWithdrawn(address,uint256)": {
        "notice": "Emitted when the current owner withdraws vault liquidity."
      }
    },
    "kind": "user",
    "methods": {
      "authorizeSavingCore(address)": {
        "notice": "Permanently authorizes the SavingCore contract."
      },
      "availableLiquidity()": {
        "notice": "Returns liquidity that the administrator may withdraw."
      },
      "feeReceiver()": {
        "notice": "Address that receives early-withdrawal penalties from SavingCore."
      },
      "fundVault(uint256)": {
        "notice": "Transfers bank-funded interest liquidity into the vault."
      },
      "fundingShortfall()": {
        "notice": "Returns liabilities not currently covered by vault tokens."
      },
      "pause()": {
        "notice": "Pauses interest payouts and owner withdrawals."
      },
      "payInterest(address,uint256)": {
        "notice": "Pays interest from the vault to a specified recipient."
      },
      "savingCore()": {
        "notice": "One-time authorized SavingCore contract."
      },
      "setFeeReceiver(address)": {
        "notice": "Updates the address that receives early-withdrawal penalties."
      },
      "token()": {
        "notice": "ERC20 token used as the bank-funded interest asset."
      },
      "totalReservedInterest()": {
        "notice": "Returns aggregate interest liabilities recorded by SavingCore."
      },
      "unpause()": {
        "notice": "Restores normal interest payouts and owner withdrawals."
      },
      "vaultBalance()": {
        "notice": "Returns the actual ERC20 balance currently held by the vault."
      },
      "withdrawVault(uint256)": {
        "notice": "Withdraws unreserved vault liquidity to the current owner."
      }
    },
    "notice": "Holds bank-funded ERC20 liquidity used to pay deposit interest.",
    "version": 1
  },
  "storageLayout": {
    "storage": [
      {
        "astId": 8,
        "contract": "contracts/VaultManager.sol:VaultManager",
        "label": "_owner",
        "offset": 0,
        "slot": "0",
        "type": "t_address"
      },
      {
        "astId": 156,
        "contract": "contracts/VaultManager.sol:VaultManager",
        "label": "_pendingOwner",
        "offset": 0,
        "slot": "1",
        "type": "t_address"
      },
      {
        "astId": 2831,
        "contract": "contracts/VaultManager.sol:VaultManager",
        "label": "_paused",
        "offset": 20,
        "slot": "1",
        "type": "t_bool"
      },
      {
        "astId": 2941,
        "contract": "contracts/VaultManager.sol:VaultManager",
        "label": "_status",
        "offset": 0,
        "slot": "2",
        "type": "t_uint256"
      },
      {
        "astId": 10071,
        "contract": "contracts/VaultManager.sol:VaultManager",
        "label": "feeReceiver",
        "offset": 0,
        "slot": "3",
        "type": "t_address"
      },
      {
        "astId": 10074,
        "contract": "contracts/VaultManager.sol:VaultManager",
        "label": "savingCore",
        "offset": 0,
        "slot": "4",
        "type": "t_address"
      }
    ],
    "types": {
      "t_address": {
        "encoding": "inplace",
        "label": "address",
        "numberOfBytes": "20"
      },
      "t_bool": {
        "encoding": "inplace",
        "label": "bool",
        "numberOfBytes": "1"
      },
      "t_uint256": {
        "encoding": "inplace",
        "label": "uint256",
        "numberOfBytes": "32"
      }
    }
  }
}